{
	"Alcancia.sol": {
		"AlcanciaDigital": {
			"abi": [
				{
					"inputs": [
						{
							"internalType": "string",
							"name": "_nombreInicial",
							"type": "string"
						},
						{
							"internalType": "uint256",
							"name": "_objetivoInicial",
							"type": "uint256"
						}
					],
					"stateMutability": "nonpayable",
					"type": "constructor"
				},
				{
					"inputs": [],
					"name": "alcanciaAbierta",
					"outputs": [
						{
							"internalType": "bool",
							"name": "",
							"type": "bool"
						}
					],
					"stateMutability": "view",
					"type": "function"
				},
				{
					"inputs": [],
					"name": "cambiarEstadoAlcancia",
					"outputs": [],
					"stateMutability": "nonpayable",
					"type": "function"
				},
				{
					"inputs": [
						{
							"internalType": "string",
							"name": "_nuevoNombre",
							"type": "string"
						}
					],
					"name": "cambiarNombre",
					"outputs": [],
					"stateMutability": "nonpayable",
					"type": "function"
				},
				{
					"inputs": [
						{
							"internalType": "uint256",
							"name": "_nuevoObjetivo",
							"type": "uint256"
						}
					],
					"name": "cambiarObjetivo",
					"outputs": [],
					"stateMutability": "nonpayable",
					"type": "function"
				},
				{
					"inputs": [],
					"name": "cantidadObjetivo",
					"outputs": [
						{
							"internalType": "uint256",
							"name": "",
							"type": "uint256"
						}
					],
					"stateMutability": "view",
					"type": "function"
				},
				{
					"inputs": [],
					"name": "depositarFondos",
					"outputs": [],
					"stateMutability": "payable",
					"type": "function"
				},
				{
					"inputs": [],
					"name": "nombreAlcancia",
					"outputs": [
						{
							"internalType": "string",
							"name": "",
							"type": "string"
						}
					],
					"stateMutability": "view",
					"type": "function"
				},
				{
					"inputs": [],
					"name": "obtenerBalance",
					"outputs": [
						{
							"internalType": "uint256",
							"name": "",
							"type": "uint256"
						}
					],
					"stateMutability": "view",
					"type": "function"
				},
				{
					"inputs": [],
					"name": "owner",
					"outputs": [
						{
							"internalType": "address",
							"name": "",
							"type": "address"
						}
					],
					"stateMutability": "view",
					"type": "function"
				}
			],
			"devdoc": {
				"kind": "dev",
				"methods": {},
				"version": 1
			},
			"evm": {
				"assembly": "    /* \"Alcancia.sol\":60:1263  contract AlcanciaDigital {... */\n  mstore(0x40, 0x80)\n    /* \"Alcancia.sol\":342:565  constructor(string memory _nombreInicial, uint _objetivoInicial) {... */\n  callvalue\n  dup1\n  iszero\n  tag_1\n  jumpi\n  0x00\n  dup1\n  revert\ntag_1:\n  pop\n  mload(0x40)\n  sub(codesize, bytecodeSize)\n  dup1\n  bytecodeSize\n  dup4\n  codecopy\n  dup2\n  dup2\n  add\n  0x40\n  mstore\n  dup2\n  add\n  swap1\n  tag_2\n  swap2\n  swap1\n  tag_3\n  jump\t// in\ntag_2:\n    /* \"Alcancia.sol\":426:436  msg.sender */\n  caller\n    /* \"Alcancia.sol\":418:423  owner */\n  0x00\n  dup1\n    /* \"Alcancia.sol\":418:436  owner = msg.sender */\n  0x0100\n  exp\n  dup2\n  sload\n  dup2\n  0xffffffffffffffffffffffffffffffffffffffff\n  mul\n  not\n  and\n  swap1\n  dup4\n  0xffffffffffffffffffffffffffffffffffffffff\n  and\n  mul\n  or\n  swap1\n  sstore\n  pop\n    /* \"Alcancia.sol\":464:478  _nombreInicial */\n  dup2\n    /* \"Alcancia.sol\":447:461  nombreAlcancia */\n  0x02\n    /* \"Alcancia.sol\":447:478  nombreAlcancia = _nombreInicial */\n  swap1\n  dup2\n  tag_6\n  swap2\n  swap1\n  tag_7\n  jump\t// in\ntag_6:\n  pop\n    /* \"Alcancia.sol\":508:524  _objetivoInicial */\n  dup1\n    /* \"Alcancia.sol\":489:505  cantidadObjetivo */\n  0x01\n    /* \"Alcancia.sol\":489:524  cantidadObjetivo = _objetivoInicial */\n  dup2\n  swap1\n  sstore\n  pop\n    /* \"Alcancia.sol\":553:557  true */\n  0x01\n    /* \"Alcancia.sol\":535:550  alcanciaAbierta */\n  0x03\n  0x00\n    /* \"Alcancia.sol\":535:557  alcanciaAbierta = true */\n  0x0100\n  exp\n  dup2\n  sload\n  dup2\n  0xff\n  mul\n  not\n  and\n  swap1\n  dup4\n  iszero\n  iszero\n  mul\n  or\n  swap1\n  sstore\n  pop\n    /* \"Alcancia.sol\":342:565  constructor(string memory _nombreInicial, uint _objetivoInicial) {... */\n  pop\n  pop\n    /* \"Alcancia.sol\":60:1263  contract AlcanciaDigital {... */\n  jump(tag_8)\n    /* \"#utility.yul\":7:82   */\ntag_9:\n    /* \"#utility.yul\":40:46   */\n  0x00\n    /* \"#utility.yul\":73:75   */\n  0x40\n    /* \"#utility.yul\":67:76   */\n  mload\n    /* \"#utility.yul\":57:76   */\n  swap1\n  pop\n    /* \"#utility.yul\":7:82   */\n  swap1\n  jump\t// out\n    /* \"#utility.yul\":88:205   */\ntag_10:\n    /* \"#utility.yul\":197:198   */\n  0x00\n    /* \"#utility.yul\":194:195   */\n  dup1\n    /* \"#utility.yul\":187:199   */\n  revert\n    /* \"#utility.yul\":211:328   */\ntag_11:\n    /* \"#utility.yul\":320:321   */\n  0x00\n    /* \"#utility.yul\":317:318   */\n  dup1\n    /* \"#utility.yul\":310:322   */\n  revert\n    /* \"#utility.yul\":334:451   */\ntag_12:\n    /* \"#utility.yul\":443:444   */\n  0x00\n    /* \"#utility.yul\":440:441   */\n  dup1\n    /* \"#utility.yul\":433:445   */\n  revert\n    /* \"#utility.yul\":457:574   */\ntag_13:\n    /* \"#utility.yul\":566:567   */\n  0x00\n    /* \"#utility.yul\":563:564   */\n  dup1\n    /* \"#utility.yul\":556:568   */\n  revert\n    /* \"#utility.yul\":580:682   */\ntag_14:\n    /* \"#utility.yul\":621:627   */\n  0x00\n    /* \"#utility.yul\":672:674   */\n  0x1f\n    /* \"#utility.yul\":668:675   */\n  not\n    /* \"#utility.yul\":663:665   */\n  0x1f\n    /* \"#utility.yul\":656:661   */\n  dup4\n    /* \"#utility.yul\":652:666   */\n  add\n    /* \"#utility.yul\":648:676   */\n  and\n    /* \"#utility.yul\":638:676   */\n  swap1\n  pop\n    /* \"#utility.yul\":580:682   */\n  swap2\n  swap1\n  pop\n  jump\t// out\n    /* \"#utility.yul\":688:868   */\ntag_15:\n    /* \"#utility.yul\":736:813   */\n  0x4e487b7100000000000000000000000000000000000000000000000000000000\n    /* \"#utility.yul\":733:734   */\n  0x00\n    /* \"#utility.yul\":726:814   */\n  mstore\n    /* \"#utility.yul\":833:837   */\n  0x41\n    /* \"#utility.yul\":830:831   */\n  0x04\n    /* \"#utility.yul\":823:838   */\n  mstore\n    /* \"#utility.yul\":857:861   */\n  0x24\n    /* \"#utility.yul\":854:855   */\n  0x00\n    /* \"#utility.yul\":847:862   */\n  revert\n    /* \"#utility.yul\":874:1155   */\ntag_16:\n    /* \"#utility.yul\":957:984   */\n  tag_52\n    /* \"#utility.yul\":979:983   */\n  dup3\n    /* \"#utility.yul\":957:984   */\n  tag_14\n  jump\t// in\ntag_52:\n    /* \"#utility.yul\":949:955   */\n  dup2\n    /* \"#utility.yul\":945:985   */\n  add\n    /* \"#utility.yul\":1087:1093   */\n  dup2\n    /* \"#utility.yul\":1075:1085   */\n  dup2\n    /* \"#utility.yul\":1072:1094   */\n  lt\n    /* \"#utility.yul\":1051:1069   */\n  0xffffffffffffffff\n    /* \"#utility.yul\":1039:1049   */\n  dup3\n    /* \"#utility.yul\":1036:1070   */\n  gt\n    /* \"#utility.yul\":1033:1095   */\n  or\n    /* \"#utility.yul\":1030:1118   */\n  iszero\n  tag_53\n  jumpi\n    /* \"#utility.yul\":1098:1116   */\n  tag_54\n  tag_15\n  jump\t// in\ntag_54:\n    /* \"#utility.yul\":1030:1118   */\ntag_53:\n    /* \"#utility.yul\":1138:1148   */\n  dup1\n    /* \"#utility.yul\":1134:1136   */\n  0x40\n    /* \"#utility.yul\":1127:1149   */\n  mstore\n    /* \"#utility.yul\":917:1155   */\n  pop\n    /* \"#utility.yul\":874:1155   */\n  pop\n  pop\n  jump\t// out\n    /* \"#utility.yul\":1161:1290   */\ntag_17:\n    /* \"#utility.yul\":1195:1201   */\n  0x00\n    /* \"#utility.yul\":1222:1242   */\n  tag_56\n  tag_9\n  jump\t// in\ntag_56:\n    /* \"#utility.yul\":1212:1242   */\n  swap1\n  pop\n    /* \"#utility.yul\":1251:1284   */\n  tag_57\n    /* \"#utility.yul\":1279:1283   */\n  dup3\n    /* \"#utility.yul\":1271:1277   */\n  dup3\n    /* \"#utility.yul\":1251:1284   */\n  tag_16\n  jump\t// in\ntag_57:\n    /* \"#utility.yul\":1161:1290   */\n  swap2\n  swap1\n  pop\n  jump\t// out\n    /* \"#utility.yul\":1296:1604   */\ntag_18:\n    /* \"#utility.yul\":1358:1362   */\n  0x00\n    /* \"#utility.yul\":1448:1466   */\n  0xffffffffffffffff\n    /* \"#utility.yul\":1440:1446   */\n  dup3\n    /* \"#utility.yul\":1437:1467   */\n  gt\n    /* \"#utility.yul\":1434:1490   */\n  iszero\n  tag_59\n  jumpi\n    /* \"#utility.yul\":1470:1488   */\n  tag_60\n  tag_15\n  jump\t// in\ntag_60:\n    /* \"#utility.yul\":1434:1490   */\ntag_59:\n    /* \"#utility.yul\":1508:1537   */\n  tag_61\n    /* \"#utility.yul\":1530:1536   */\n  dup3\n    /* \"#utility.yul\":1508:1537   */\n  tag_14\n  jump\t// in\ntag_61:\n    /* \"#utility.yul\":1500:1537   */\n  swap1\n  pop\n    /* \"#utility.yul\":1592:1596   */\n  0x20\n    /* \"#utility.yul\":1586:1590   */\n  dup2\n    /* \"#utility.yul\":1582:1597   */\n  add\n    /* \"#utility.yul\":1574:1597   */\n  swap1\n  pop\n    /* \"#utility.yul\":1296:1604   */\n  swap2\n  swap1\n  pop\n  jump\t// out\n    /* \"#utility.yul\":1610:1856   */\ntag_19:\n    /* \"#utility.yul\":1691:1692   */\n  0x00\n    /* \"#utility.yul\":1701:1814   */\ntag_63:\n    /* \"#utility.yul\":1715:1721   */\n  dup4\n    /* \"#utility.yul\":1712:1713   */\n  dup2\n    /* \"#utility.yul\":1709:1722   */\n  lt\n    /* \"#utility.yul\":1701:1814   */\n  iszero\n  tag_65\n  jumpi\n    /* \"#utility.yul\":1800:1801   */\n  dup1\n    /* \"#utility.yul\":1795:1798   */\n  dup3\n    /* \"#utility.yul\":1791:1802   */\n  add\n    /* \"#utility.yul\":1785:1803   */\n  mload\n    /* \"#utility.yul\":1781:1782   */\n  dup2\n    /* \"#utility.yul\":1776:1779   */\n  dup5\n    /* \"#utility.yul\":1772:1783   */\n  add\n    /* \"#utility.yul\":1765:1804   */\n  mstore\n    /* \"#utility.yul\":1737:1739   */\n  0x20\n    /* \"#utility.yul\":1734:1735   */\n  dup2\n    /* \"#utility.yul\":1730:1740   */\n  add\n    /* \"#utility.yul\":1725:1740   */\n  swap1\n  pop\n    /* \"#utility.yul\":1701:1814   */\n  jump(tag_63)\ntag_65:\n    /* \"#utility.yul\":1848:1849   */\n  0x00\n    /* \"#utility.yul\":1839:1845   */\n  dup5\n    /* \"#utility.yul\":1834:1837   */\n  dup5\n    /* \"#utility.yul\":1830:1846   */\n  add\n    /* \"#utility.yul\":1823:1850   */\n  mstore\n    /* \"#utility.yul\":1672:1856   */\n  pop\n    /* \"#utility.yul\":1610:1856   */\n  pop\n  pop\n  pop\n  jump\t// out\n    /* \"#utility.yul\":1862:2296   */\ntag_20:\n    /* \"#utility.yul\":1951:1956   */\n  0x00\n    /* \"#utility.yul\":1976:2042   */\n  tag_67\n    /* \"#utility.yul\":1992:2041   */\n  tag_68\n    /* \"#utility.yul\":2034:2040   */\n  dup5\n    /* \"#utility.yul\":1992:2041   */\n  tag_18\n  jump\t// in\ntag_68:\n    /* \"#utility.yul\":1976:2042   */\n  tag_17\n  jump\t// in\ntag_67:\n    /* \"#utility.yul\":1967:2042   */\n  swap1\n  pop\n    /* \"#utility.yul\":2065:2071   */\n  dup3\n    /* \"#utility.yul\":2058:2063   */\n  dup2\n    /* \"#utility.yul\":2051:2072   */\n  mstore\n    /* \"#utility.yul\":2103:2107   */\n  0x20\n    /* \"#utility.yul\":2096:2101   */\n  dup2\n    /* \"#utility.yul\":2092:2108   */\n  add\n    /* \"#utility.yul\":2141:2144   */\n  dup5\n    /* \"#utility.yul\":2132:2138   */\n  dup5\n    /* \"#utility.yul\":2127:2130   */\n  dup5\n    /* \"#utility.yul\":2123:2139   */\n  add\n    /* \"#utility.yul\":2120:2145   */\n  gt\n    /* \"#utility.yul\":2117:2229   */\n  iszero\n  tag_69\n  jumpi\n    /* \"#utility.yul\":2148:2227   */\n  tag_70\n  tag_13\n  jump\t// in\ntag_70:\n    /* \"#utility.yul\":2117:2229   */\ntag_69:\n    /* \"#utility.yul\":2238:2290   */\n  tag_71\n    /* \"#utility.yul\":2283:2289   */\n  dup5\n    /* \"#utility.yul\":2278:2281   */\n  dup3\n    /* \"#utility.yul\":2273:2276   */\n  dup6\n    /* \"#utility.yul\":2238:2290   */\n  tag_19\n  jump\t// in\ntag_71:\n    /* \"#utility.yul\":1957:2296   */\n  pop\n    /* \"#utility.yul\":1862:2296   */\n  swap4\n  swap3\n  pop\n  pop\n  pop\n  jump\t// out\n    /* \"#utility.yul\":2316:2671   */\ntag_21:\n    /* \"#utility.yul\":2383:2388   */\n  0x00\n    /* \"#utility.yul\":2432:2435   */\n  dup3\n    /* \"#utility.yul\":2425:2429   */\n  0x1f\n    /* \"#utility.yul\":2417:2423   */\n  dup4\n    /* \"#utility.yul\":2413:2430   */\n  add\n    /* \"#utility.yul\":2409:2436   */\n  slt\n    /* \"#utility.yul\":2399:2521   */\n  tag_73\n  jumpi\n    /* \"#utility.yul\":2440:2519   */\n  tag_74\n  tag_12\n  jump\t// in\ntag_74:\n    /* \"#utility.yul\":2399:2521   */\ntag_73:\n    /* \"#utility.yul\":2550:2556   */\n  dup2\n    /* \"#utility.yul\":2544:2557   */\n  mload\n    /* \"#utility.yul\":2575:2665   */\n  tag_75\n    /* \"#utility.yul\":2661:2664   */\n  dup5\n    /* \"#utility.yul\":2653:2659   */\n  dup3\n    /* \"#utility.yul\":2646:2650   */\n  0x20\n    /* \"#utility.yul\":2638:2644   */\n  dup7\n    /* \"#utility.yul\":2634:2651   */\n  add\n    /* \"#utility.yul\":2575:2665   */\n  tag_20\n  jump\t// in\ntag_75:\n    /* \"#utility.yul\":2566:2665   */\n  swap2\n  pop\n    /* \"#utility.yul\":2389:2671   */\n  pop\n    /* \"#utility.yul\":2316:2671   */\n  swap3\n  swap2\n  pop\n  pop\n  jump\t// out\n    /* \"#utility.yul\":2677:2754   */\ntag_22:\n    /* \"#utility.yul\":2714:2721   */\n  0x00\n    /* \"#utility.yul\":2743:2748   */\n  dup2\n    /* \"#utility.yul\":2732:2748   */\n  swap1\n  pop\n    /* \"#utility.yul\":2677:2754   */\n  swap2\n  swap1\n  pop\n  jump\t// out\n    /* \"#utility.yul\":2760:2882   */\ntag_23:\n    /* \"#utility.yul\":2833:2857   */\n  tag_78\n    /* \"#utility.yul\":2851:2856   */\n  dup2\n    /* \"#utility.yul\":2833:2857   */\n  tag_22\n  jump\t// in\ntag_78:\n    /* \"#utility.yul\":2826:2831   */\n  dup2\n    /* \"#utility.yul\":2823:2858   */\n  eq\n    /* \"#utility.yul\":2813:2876   */\n  tag_79\n  jumpi\n    /* \"#utility.yul\":2872:2873   */\n  0x00\n    /* \"#utility.yul\":2869:2870   */\n  dup1\n    /* \"#utility.yul\":2862:2874   */\n  revert\n    /* \"#utility.yul\":2813:2876   */\ntag_79:\n    /* \"#utility.yul\":2760:2882   */\n  pop\n  jump\t// out\n    /* \"#utility.yul\":2888:3031   */\ntag_24:\n    /* \"#utility.yul\":2945:2950   */\n  0x00\n    /* \"#utility.yul\":2976:2982   */\n  dup2\n    /* \"#utility.yul\":2970:2983   */\n  mload\n    /* \"#utility.yul\":2961:2983   */\n  swap1\n  pop\n    /* \"#utility.yul\":2992:3025   */\n  tag_81\n    /* \"#utility.yul\":3019:3024   */\n  dup2\n    /* \"#utility.yul\":2992:3025   */\n  tag_23\n  jump\t// in\ntag_81:\n    /* \"#utility.yul\":2888:3031   */\n  swap3\n  swap2\n  pop\n  pop\n  jump\t// out\n    /* \"#utility.yul\":3037:3717   */\ntag_3:\n    /* \"#utility.yul\":3126:3132   */\n  0x00\n    /* \"#utility.yul\":3134:3140   */\n  dup1\n    /* \"#utility.yul\":3183:3185   */\n  0x40\n    /* \"#utility.yul\":3171:3180   */\n  dup4\n    /* \"#utility.yul\":3162:3169   */\n  dup6\n    /* \"#utility.yul\":3158:3181   */\n  sub\n    /* \"#utility.yul\":3154:3186   */\n  slt\n    /* \"#utility.yul\":3151:3270   */\n  iszero\n  tag_83\n  jumpi\n    /* \"#utility.yul\":3189:3268   */\n  tag_84\n  tag_10\n  jump\t// in\ntag_84:\n    /* \"#utility.yul\":3151:3270   */\ntag_83:\n    /* \"#utility.yul\":3330:3331   */\n  0x00\n    /* \"#utility.yul\":3319:3328   */\n  dup4\n    /* \"#utility.yul\":3315:3332   */\n  add\n    /* \"#utility.yul\":3309:3333   */\n  mload\n    /* \"#utility.yul\":3360:3378   */\n  0xffffffffffffffff\n    /* \"#utility.yul\":3352:3358   */\n  dup2\n    /* \"#utility.yul\":3349:3379   */\n  gt\n    /* \"#utility.yul\":3346:3463   */\n  iszero\n  tag_85\n  jumpi\n    /* \"#utility.yul\":3382:3461   */\n  tag_86\n  tag_11\n  jump\t// in\ntag_86:\n    /* \"#utility.yul\":3346:3463   */\ntag_85:\n    /* \"#utility.yul\":3487:3561   */\n  tag_87\n    /* \"#utility.yul\":3553:3560   */\n  dup6\n    /* \"#utility.yul\":3544:3550   */\n  dup3\n    /* \"#utility.yul\":3533:3542   */\n  dup7\n    /* \"#utility.yul\":3529:3551   */\n  add\n    /* \"#utility.yul\":3487:3561   */\n  tag_21\n  jump\t// in\ntag_87:\n    /* \"#utility.yul\":3477:3561   */\n  swap3\n  pop\n    /* \"#utility.yul\":3280:3571   */\n  pop\n    /* \"#utility.yul\":3610:3612   */\n  0x20\n    /* \"#utility.yul\":3636:3700   */\n  tag_88\n    /* \"#utility.yul\":3692:3699   */\n  dup6\n    /* \"#utility.yul\":3683:3689   */\n  dup3\n    /* \"#utility.yul\":3672:3681   */\n  dup7\n    /* \"#utility.yul\":3668:3690   */\n  add\n    /* \"#utility.yul\":3636:3700   */\n  tag_24\n  jump\t// in\ntag_88:\n    /* \"#utility.yul\":3626:3700   */\n  swap2\n  pop\n    /* \"#utility.yul\":3581:3710   */\n  pop\n    /* \"#utility.yul\":3037:3717   */\n  swap3\n  pop\n  swap3\n  swap1\n  pop\n  jump\t// out\n    /* \"#utility.yul\":3723:3822   */\ntag_25:\n    /* \"#utility.yul\":3775:3781   */\n  0x00\n    /* \"#utility.yul\":3809:3814   */\n  dup2\n    /* \"#utility.yul\":3803:3815   */\n  mload\n    /* \"#utility.yul\":3793:3815   */\n  swap1\n  pop\n    /* \"#utility.yul\":3723:3822   */\n  swap2\n  swap1\n  pop\n  jump\t// out\n    /* \"#utility.yul\":3828:4008   */\ntag_26:\n    /* \"#utility.yul\":3876:3953   */\n  0x4e487b7100000000000000000000000000000000000000000000000000000000\n    /* \"#utility.yul\":3873:3874   */\n  0x00\n    /* \"#utility.yul\":3866:3954   */\n  mstore\n    /* \"#utility.yul\":3973:3977   */\n  0x22\n    /* \"#utility.yul\":3970:3971   */\n  0x04\n    /* \"#utility.yul\":3963:3978   */\n  mstore\n    /* \"#utility.yul\":3997:4001   */\n  0x24\n    /* \"#utility.yul\":3994:3995   */\n  0x00\n    /* \"#utility.yul\":3987:4002   */\n  revert\n    /* \"#utility.yul\":4014:4334   */\ntag_27:\n    /* \"#utility.yul\":4058:4064   */\n  0x00\n    /* \"#utility.yul\":4095:4096   */\n  0x02\n    /* \"#utility.yul\":4089:4093   */\n  dup3\n    /* \"#utility.yul\":4085:4097   */\n  div\n    /* \"#utility.yul\":4075:4097   */\n  swap1\n  pop\n    /* \"#utility.yul\":4142:4143   */\n  0x01\n    /* \"#utility.yul\":4136:4140   */\n  dup3\n    /* \"#utility.yul\":4132:4144   */\n  and\n    /* \"#utility.yul\":4163:4181   */\n  dup1\n    /* \"#utility.yul\":4153:4234   */\n  tag_92\n  jumpi\n    /* \"#utility.yul\":4219:4223   */\n  0x7f\n    /* \"#utility.yul\":4211:4217   */\n  dup3\n    /* \"#utility.yul\":4207:4224   */\n  and\n    /* \"#utility.yul\":4197:4224   */\n  swap2\n  pop\n    /* \"#utility.yul\":4153:4234   */\ntag_92:\n    /* \"#utility.yul\":4281:4283   */\n  0x20\n    /* \"#utility.yul\":4273:4279   */\n  dup3\n    /* \"#utility.yul\":4270:4284   */\n  lt\n    /* \"#utility.yul\":4250:4268   */\n  dup2\n    /* \"#utility.yul\":4247:4285   */\n  sub\n    /* \"#utility.yul\":4244:4328   */\n  tag_93\n  jumpi\n    /* \"#utility.yul\":4300:4318   */\n  tag_94\n  tag_26\n  jump\t// in\ntag_94:\n    /* \"#utility.yul\":4244:4328   */\ntag_93:\n    /* \"#utility.yul\":4065:4334   */\n  pop\n    /* \"#utility.yul\":4014:4334   */\n  swap2\n  swap1\n  pop\n  jump\t// out\n    /* \"#utility.yul\":4340:4481   */\ntag_28:\n    /* \"#utility.yul\":4389:4393   */\n  0x00\n    /* \"#utility.yul\":4412:4415   */\n  dup2\n    /* \"#utility.yul\":4404:4415   */\n  swap1\n  pop\n    /* \"#utility.yul\":4435:4438   */\n  dup2\n    /* \"#utility.yul\":4432:4433   */\n  0x00\n    /* \"#utility.yul\":4425:4439   */\n  mstore\n    /* \"#utility.yul\":4469:4473   */\n  0x20\n    /* \"#utility.yul\":4466:4467   */\n  0x00\n    /* \"#utility.yul\":4456:4474   */\n  keccak256\n    /* \"#utility.yul\":4448:4474   */\n  swap1\n  pop\n    /* \"#utility.yul\":4340:4481   */\n  swap2\n  swap1\n  pop\n  jump\t// out\n    /* \"#utility.yul\":4487:4580   */\ntag_29:\n    /* \"#utility.yul\":4524:4530   */\n  0x00\n    /* \"#utility.yul\":4571:4573   */\n  0x20\n    /* \"#utility.yul\":4566:4568   */\n  0x1f\n    /* \"#utility.yul\":4559:4564   */\n  dup4\n    /* \"#utility.yul\":4555:4569   */\n  add\n    /* \"#utility.yul\":4551:4574   */\n  div\n    /* \"#utility.yul\":4541:4574   */\n  swap1\n  pop\n    /* \"#utility.yul\":4487:4580   */\n  swap2\n  swap1\n  pop\n  jump\t// out\n    /* \"#utility.yul\":4586:4693   */\ntag_30:\n    /* \"#utility.yul\":4630:4638   */\n  0x00\n    /* \"#utility.yul\":4680:4685   */\n  dup3\n    /* \"#utility.yul\":4674:4678   */\n  dup3\n    /* \"#utility.yul\":4670:4686   */\n  shl\n    /* \"#utility.yul\":4649:4686   */\n  swap1\n  pop\n    /* \"#utility.yul\":4586:4693   */\n  swap3\n  swap2\n  pop\n  pop\n  jump\t// out\n    /* \"#utility.yul\":4699:5092   */\ntag_31:\n    /* \"#utility.yul\":4768:4774   */\n  0x00\n    /* \"#utility.yul\":4818:4819   */\n  0x08\n    /* \"#utility.yul\":4806:4816   */\n  dup4\n    /* \"#utility.yul\":4802:4820   */\n  mul\n    /* \"#utility.yul\":4841:4938   */\n  tag_99\n    /* \"#utility.yul\":4871:4937   */\n  0xffffffffffffffffffffffffffffffffffffffffffffffffffffffffffffffff\n    /* \"#utility.yul\":4860:4869   */\n  dup3\n    /* \"#utility.yul\":4841:4938   */\n  tag_30\n  jump\t// in\ntag_99:\n    /* \"#utility.yul\":4959:4998   */\n  tag_100\n    /* \"#utility.yul\":4989:4997   */\n  dup7\n    /* \"#utility.yul\":4978:4987   */\n  dup4\n    /* \"#utility.yul\":4959:4998   */\n  tag_30\n  jump\t// in\ntag_100:\n    /* \"#utility.yul\":4947:4998   */\n  swap6\n  pop\n    /* \"#utility.yul\":5031:5035   */\n  dup1\n    /* \"#utility.yul\":5027:5036   */\n  not\n    /* \"#utility.yul\":5020:5025   */\n  dup5\n    /* \"#utility.yul\":5016:5037   */\n  and\n    /* \"#utility.yul\":5007:5037   */\n  swap4\n  pop\n    /* \"#utility.yul\":5080:5084   */\n  dup1\n    /* \"#utility.yul\":5070:5078   */\n  dup7\n    /* \"#utility.yul\":5066:5085   */\n  and\n    /* \"#utility.yul\":5059:5064   */\n  dup5\n    /* \"#utility.yul\":5056:5086   */\n  or\n    /* \"#utility.yul\":5046:5086   */\n  swap3\n  pop\n    /* \"#utility.yul\":4775:5092   */\n  pop\n  pop\n    /* \"#utility.yul\":4699:5092   */\n  swap4\n  swap3\n  pop\n  pop\n  pop\n  jump\t// out\n    /* \"#utility.yul\":5098:5158   */\ntag_32:\n    /* \"#utility.yul\":5126:5129   */\n  0x00\n    /* \"#utility.yul\":5147:5152   */\n  dup2\n    /* \"#utility.yul\":5140:5152   */\n  swap1\n  pop\n    /* \"#utility.yul\":5098:5158   */\n  swap2\n  swap1\n  pop\n  jump\t// out\n    /* \"#utility.yul\":5164:5306   */\ntag_33:\n    /* \"#utility.yul\":5214:5223   */\n  0x00\n    /* \"#utility.yul\":5247:5300   */\n  tag_103\n    /* \"#utility.yul\":5265:5299   */\n  tag_104\n    /* \"#utility.yul\":5274:5298   */\n  tag_105\n    /* \"#utility.yul\":5292:5297   */\n  dup5\n    /* \"#utility.yul\":5274:5298   */\n  tag_22\n  jump\t// in\ntag_105:\n    /* \"#utility.yul\":5265:5299   */\n  tag_32\n  jump\t// in\ntag_104:\n    /* \"#utility.yul\":5247:5300   */\n  tag_22\n  jump\t// in\ntag_103:\n    /* \"#utility.yul\":5234:5300   */\n  swap1\n  pop\n    /* \"#utility.yul\":5164:5306   */\n  swap2\n  swap1\n  pop\n  jump\t// out\n    /* \"#utility.yul\":5312:5387   */\ntag_34:\n    /* \"#utility.yul\":5355:5358   */\n  0x00\n    /* \"#utility.yul\":5376:5381   */\n  dup2\n    /* \"#utility.yul\":5369:5381   */\n  swap1\n  pop\n    /* \"#utility.yul\":5312:5387   */\n  swap2\n  swap1\n  pop\n  jump\t// out\n    /* \"#utility.yul\":5393:5662   */\ntag_35:\n    /* \"#utility.yul\":5503:5542   */\n  tag_108\n    /* \"#utility.yul\":5534:5541   */\n  dup4\n    /* \"#utility.yul\":5503:5542   */\n  tag_33\n  jump\t// in\ntag_108:\n    /* \"#utility.yul\":5564:5655   */\n  tag_109\n    /* \"#utility.yul\":5613:5654   */\n  tag_110\n    /* \"#utility.yul\":5637:5653   */\n  dup3\n    /* \"#utility.yul\":5613:5654   */\n  tag_34\n  jump\t// in\ntag_110:\n    /* \"#utility.yul\":5605:5611   */\n  dup5\n    /* \"#utility.yul\":5598:5602   */\n  dup5\n    /* \"#utility.yul\":5592:5603   */\n  sload\n    /* \"#utility.yul\":5564:5655   */\n  tag_31\n  jump\t// in\ntag_109:\n    /* \"#utility.yul\":5558:5562   */\n  dup3\n    /* \"#utility.yul\":5551:5656   */\n  sstore\n    /* \"#utility.yul\":5469:5662   */\n  pop\n    /* \"#utility.yul\":5393:5662   */\n  pop\n  pop\n  pop\n  jump\t// out\n    /* \"#utility.yul\":5668:5741   */\ntag_36:\n    /* \"#utility.yul\":5713:5716   */\n  0x00\n    /* \"#utility.yul\":5668:5741   */\n  swap1\n  jump\t// out\n    /* \"#utility.yul\":5747:5936   */\ntag_37:\n    /* \"#utility.yul\":5824:5856   */\n  tag_113\n  tag_36\n  jump\t// in\ntag_113:\n    /* \"#utility.yul\":5865:5930   */\n  tag_114\n    /* \"#utility.yul\":5923:5929   */\n  dup2\n    /* \"#utility.yul\":5915:5921   */\n  dup5\n    /* \"#utility.yul\":5909:5913   */\n  dup5\n    /* \"#utility.yul\":5865:5930   */\n  tag_35\n  jump\t// in\ntag_114:\n    /* \"#utility.yul\":5800:5936   */\n  pop\n    /* \"#utility.yul\":5747:5936   */\n  pop\n  pop\n  jump\t// out\n    /* \"#utility.yul\":5942:6128   */\ntag_38:\n    /* \"#utility.yul\":6002:6122   */\ntag_116:\n    /* \"#utility.yul\":6019:6022   */\n  dup2\n    /* \"#utility.yul\":6012:6017   */\n  dup2\n    /* \"#utility.yul\":6009:6023   */\n  lt\n    /* \"#utility.yul\":6002:6122   */\n  iszero\n  tag_118\n  jumpi\n    /* \"#utility.yul\":6073:6112   */\n  tag_119\n    /* \"#utility.yul\":6110:6111   */\n  0x00\n    /* \"#utility.yul\":6103:6108   */\n  dup3\n    /* \"#utility.yul\":6073:6112   */\n  tag_37\n  jump\t// in\ntag_119:\n    /* \"#utility.yul\":6046:6047   */\n  0x01\n    /* \"#utility.yul\":6039:6044   */\n  dup2\n    /* \"#utility.yul\":6035:6048   */\n  add\n    /* \"#utility.yul\":6026:6048   */\n  swap1\n  pop\n    /* \"#utility.yul\":6002:6122   */\n  jump(tag_116)\ntag_118:\n    /* \"#utility.yul\":5942:6128   */\n  pop\n  pop\n  jump\t// out\n    /* \"#utility.yul\":6134:6677   */\ntag_39:\n    /* \"#utility.yul\":6235:6237   */\n  0x1f\n    /* \"#utility.yul\":6230:6233   */\n  dup3\n    /* \"#utility.yul\":6227:6238   */\n  gt\n    /* \"#utility.yul\":6224:6670   */\n  iszero\n  tag_121\n  jumpi\n    /* \"#utility.yul\":6269:6307   */\n  tag_122\n    /* \"#utility.yul\":6301:6306   */\n  dup2\n    /* \"#utility.yul\":6269:6307   */\n  tag_28\n  jump\t// in\ntag_122:\n    /* \"#utility.yul\":6353:6382   */\n  tag_123\n    /* \"#utility.yul\":6371:6381   */\n  dup5\n    /* \"#utility.yul\":6353:6382   */\n  tag_29\n  jump\t// in\ntag_123:\n    /* \"#utility.yul\":6343:6351   */\n  dup2\n    /* \"#utility.yul\":6339:6383   */\n  add\n    /* \"#utility.yul\":6536:6538   */\n  0x20\n    /* \"#utility.yul\":6524:6534   */\n  dup6\n    /* \"#utility.yul\":6521:6539   */\n  lt\n    /* \"#utility.yul\":6518:6567   */\n  iszero\n  tag_124\n  jumpi\n    /* \"#utility.yul\":6557:6565   */\n  dup2\n    /* \"#utility.yul\":6542:6565   */\n  swap1\n  pop\n    /* \"#utility.yul\":6518:6567   */\ntag_124:\n    /* \"#utility.yul\":6580:6660   */\n  tag_125\n    /* \"#utility.yul\":6636:6658   */\n  tag_126\n    /* \"#utility.yul\":6654:6657   */\n  dup6\n    /* \"#utility.yul\":6636:6658   */\n  tag_29\n  jump\t// in\ntag_126:\n    /* \"#utility.yul\":6626:6634   */\n  dup4\n    /* \"#utility.yul\":6622:6659   */\n  add\n    /* \"#utility.yul\":6609:6620   */\n  dup3\n    /* \"#utility.yul\":6580:6660   */\n  tag_38\n  jump\t// in\ntag_125:\n    /* \"#utility.yul\":6239:6670   */\n  pop\n  pop\n    /* \"#utility.yul\":6224:6670   */\ntag_121:\n    /* \"#utility.yul\":6134:6677   */\n  pop\n  pop\n  pop\n  jump\t// out\n    /* \"#utility.yul\":6683:6800   */\ntag_40:\n    /* \"#utility.yul\":6737:6745   */\n  0x00\n    /* \"#utility.yul\":6787:6792   */\n  dup3\n    /* \"#utility.yul\":6781:6785   */\n  dup3\n    /* \"#utility.yul\":6777:6793   */\n  shr\n    /* \"#utility.yul\":6756:6793   */\n  swap1\n  pop\n    /* \"#utility.yul\":6683:6800   */\n  swap3\n  swap2\n  pop\n  pop\n  jump\t// out\n    /* \"#utility.yul\":6806:6975   */\ntag_41:\n    /* \"#utility.yul\":6850:6856   */\n  0x00\n    /* \"#utility.yul\":6883:6934   */\n  tag_129\n    /* \"#utility.yul\":6931:6932   */\n  0x00\n    /* \"#utility.yul\":6927:6933   */\n  not\n    /* \"#utility.yul\":6919:6924   */\n  dup5\n    /* \"#utility.yul\":6916:6917   */\n  0x08\n    /* \"#utility.yul\":6912:6925   */\n  mul\n    /* \"#utility.yul\":6883:6934   */\n  tag_40\n  jump\t// in\ntag_129:\n    /* \"#utility.yul\":6879:6935   */\n  not\n    /* \"#utility.yul\":6964:6968   */\n  dup1\n    /* \"#utility.yul\":6958:6962   */\n  dup4\n    /* \"#utility.yul\":6954:6969   */\n  and\n    /* \"#utility.yul\":6944:6969   */\n  swap2\n  pop\n    /* \"#utility.yul\":6857:6975   */\n  pop\n    /* \"#utility.yul\":6806:6975   */\n  swap3\n  swap2\n  pop\n  pop\n  jump\t// out\n    /* \"#utility.yul\":6980:7275   */\ntag_42:\n    /* \"#utility.yul\":7056:7060   */\n  0x00\n    /* \"#utility.yul\":7202:7231   */\n  tag_131\n    /* \"#utility.yul\":7227:7230   */\n  dup4\n    /* \"#utility.yul\":7221:7225   */\n  dup4\n    /* \"#utility.yul\":7202:7231   */\n  tag_41\n  jump\t// in\ntag_131:\n    /* \"#utility.yul\":7194:7231   */\n  swap2\n  pop\n    /* \"#utility.yul\":7264:7267   */\n  dup3\n    /* \"#utility.yul\":7261:7262   */\n  0x02\n    /* \"#utility.yul\":7257:7268   */\n  mul\n    /* \"#utility.yul\":7251:7255   */\n  dup3\n    /* \"#utility.yul\":7248:7269   */\n  or\n    /* \"#utility.yul\":7240:7269   */\n  swap1\n  pop\n    /* \"#utility.yul\":6980:7275   */\n  swap3\n  swap2\n  pop\n  pop\n  jump\t// out\n    /* \"#utility.yul\":7280:8675   */\ntag_7:\n    /* \"#utility.yul\":7397:7434   */\n  tag_133\n    /* \"#utility.yul\":7430:7433   */\n  dup3\n    /* \"#utility.yul\":7397:7434   */\n  tag_25\n  jump\t// in\ntag_133:\n    /* \"#utility.yul\":7499:7517   */\n  0xffffffffffffffff\n    /* \"#utility.yul\":7491:7497   */\n  dup2\n    /* \"#utility.yul\":7488:7518   */\n  gt\n    /* \"#utility.yul\":7485:7541   */\n  iszero\n  tag_134\n  jumpi\n    /* \"#utility.yul\":7521:7539   */\n  tag_135\n  tag_15\n  jump\t// in\ntag_135:\n    /* \"#utility.yul\":7485:7541   */\ntag_134:\n    /* \"#utility.yul\":7565:7603   */\n  tag_136\n    /* \"#utility.yul\":7597:7601   */\n  dup3\n    /* \"#utility.yul\":7591:7602   */\n  sload\n    /* \"#utility.yul\":7565:7603   */\n  tag_27\n  jump\t// in\ntag_136:\n    /* \"#utility.yul\":7650:7717   */\n  tag_137\n    /* \"#utility.yul\":7710:7716   */\n  dup3\n    /* \"#utility.yul\":7702:7708   */\n  dup3\n    /* \"#utility.yul\":7696:7700   */\n  dup6\n    /* \"#utility.yul\":7650:7717   */\n  tag_39\n  jump\t// in\ntag_137:\n    /* \"#utility.yul\":7744:7745   */\n  0x00\n    /* \"#utility.yul\":7768:7772   */\n  0x20\n    /* \"#utility.yul\":7755:7772   */\n  swap1\n  pop\n    /* \"#utility.yul\":7800:7802   */\n  0x1f\n    /* \"#utility.yul\":7792:7798   */\n  dup4\n    /* \"#utility.yul\":7789:7803   */\n  gt\n    /* \"#utility.yul\":7817:7818   */\n  0x01\n    /* \"#utility.yul\":7812:8430   */\n  dup2\n  eq\n  tag_139\n  jumpi\n    /* \"#utility.yul\":8474:8475   */\n  0x00\n    /* \"#utility.yul\":8491:8497   */\n  dup5\n    /* \"#utility.yul\":8488:8565   */\n  iszero\n  tag_140\n  jumpi\n    /* \"#utility.yul\":8540:8549   */\n  dup3\n    /* \"#utility.yul\":8535:8538   */\n  dup8\n    /* \"#utility.yul\":8531:8550   */\n  add\n    /* \"#utility.yul\":8525:8551   */\n  mload\n    /* \"#utility.yul\":8516:8551   */\n  swap1\n  pop\n    /* \"#utility.yul\":8488:8565   */\ntag_140:\n    /* \"#utility.yul\":8591:8658   */\n  tag_141\n    /* \"#utility.yul\":8651:8657   */\n  dup6\n    /* \"#utility.yul\":8644:8649   */\n  dup3\n    /* \"#utility.yul\":8591:8658   */\n  tag_42\n  jump\t// in\ntag_141:\n    /* \"#utility.yul\":8585:8589   */\n  dup7\n    /* \"#utility.yul\":8578:8659   */\n  sstore\n    /* \"#utility.yul\":8447:8669   */\n  pop\n    /* \"#utility.yul\":7782:8669   */\n  jump(tag_138)\n    /* \"#utility.yul\":7812:8430   */\ntag_139:\n    /* \"#utility.yul\":7864:7868   */\n  0x1f\n    /* \"#utility.yul\":7860:7869   */\n  not\n    /* \"#utility.yul\":7852:7858   */\n  dup5\n    /* \"#utility.yul\":7848:7870   */\n  and\n    /* \"#utility.yul\":7898:7935   */\n  tag_142\n    /* \"#utility.yul\":7930:7934   */\n  dup7\n    /* \"#utility.yul\":7898:7935   */\n  tag_28\n  jump\t// in\ntag_142:\n    /* \"#utility.yul\":7957:7958   */\n  0x00\n    /* \"#utility.yul\":7971:8179   */\ntag_143:\n    /* \"#utility.yul\":7985:7992   */\n  dup3\n    /* \"#utility.yul\":7982:7983   */\n  dup2\n    /* \"#utility.yul\":7979:7993   */\n  lt\n    /* \"#utility.yul\":7971:8179   */\n  iszero\n  tag_145\n  jumpi\n    /* \"#utility.yul\":8064:8073   */\n  dup5\n    /* \"#utility.yul\":8059:8062   */\n  dup10\n    /* \"#utility.yul\":8055:8074   */\n  add\n    /* \"#utility.yul\":8049:8075   */\n  mload\n    /* \"#utility.yul\":8041:8047   */\n  dup3\n    /* \"#utility.yul\":8034:8076   */\n  sstore\n    /* \"#utility.yul\":8115:8116   */\n  0x01\n    /* \"#utility.yul\":8107:8113   */\n  dup3\n    /* \"#utility.yul\":8103:8117   */\n  add\n    /* \"#utility.yul\":8093:8117   */\n  swap2\n  pop\n    /* \"#utility.yul\":8162:8164   */\n  0x20\n    /* \"#utility.yul\":8151:8160   */\n  dup6\n    /* \"#utility.yul\":8147:8165   */\n  add\n    /* \"#utility.yul\":8134:8165   */\n  swap5\n  pop\n    /* \"#utility.yul\":8008:8012   */\n  0x20\n    /* \"#utility.yul\":8005:8006   */\n  dup2\n    /* \"#utility.yul\":8001:8013   */\n  add\n    /* \"#utility.yul\":7996:8013   */\n  swap1\n  pop\n    /* \"#utility.yul\":7971:8179   */\n  jump(tag_143)\ntag_145:\n    /* \"#utility.yul\":8207:8213   */\n  dup7\n    /* \"#utility.yul\":8198:8205   */\n  dup4\n    /* \"#utility.yul\":8195:8214   */\n  lt\n    /* \"#utility.yul\":8192:8371   */\n  iszero\n  tag_146\n  jumpi\n    /* \"#utility.yul\":8265:8274   */\n  dup5\n    /* \"#utility.yul\":8260:8263   */\n  dup10\n    /* \"#utility.yul\":8256:8275   */\n  add\n    /* \"#utility.yul\":8250:8276   */\n  mload\n    /* \"#utility.yul\":8308:8356   */\n  tag_147\n    /* \"#utility.yul\":8350:8354   */\n  0x1f\n    /* \"#utility.yul\":8342:8348   */\n  dup10\n    /* \"#utility.yul\":8338:8355   */\n  and\n    /* \"#utility.yul\":8327:8336   */\n  dup3\n    /* \"#utility.yul\":8308:8356   */\n  tag_41\n  jump\t// in\ntag_147:\n    /* \"#utility.yul\":8300:8306   */\n  dup4\n    /* \"#utility.yul\":8293:8357   */\n  sstore\n    /* \"#utility.yul\":8215:8371   */\n  pop\n    /* \"#utility.yul\":8192:8371   */\ntag_146:\n    /* \"#utility.yul\":8417:8418   */\n  0x01\n    /* \"#utility.yul\":8413:8414   */\n  0x02\n    /* \"#utility.yul\":8405:8411   */\n  dup9\n    /* \"#utility.yul\":8401:8415   */\n  mul\n    /* \"#utility.yul\":8397:8419   */\n  add\n    /* \"#utility.yul\":8391:8395   */\n  dup9\n    /* \"#utility.yul\":8384:8420   */\n  sstore\n    /* \"#utility.yul\":7819:8430   */\n  pop\n  pop\n  pop\n    /* \"#utility.yul\":7782:8669   */\ntag_138:\n  pop\n    /* \"#utility.yul\":7372:8675   */\n  pop\n  pop\n  pop\n    /* \"#utility.yul\":7280:8675   */\n  pop\n  pop\n  jump\t// out\n    /* \"Alcancia.sol\":60:1263  contract AlcanciaDigital {... */\ntag_8:\n  dataSize(sub_0)\n  dup1\n  dataOffset(sub_0)\n  0x00\n  codecopy\n  0x00\n  return\nstop\n\nsub_0: assembly {\n        /* \"Alcancia.sol\":60:1263  contract AlcanciaDigital {... */\n      mstore(0x40, 0x80)\n      jumpi(tag_1, lt(calldatasize, 0x04))\n      shr(0xe0, calldataload(0x00))\n      dup1\n      0x3ec47542\n      gt\n      tag_11\n      jumpi\n      dup1\n      0x3ec47542\n      eq\n      tag_6\n      jumpi\n      dup1\n      0x78340e57\n      eq\n      tag_7\n      jumpi\n      dup1\n      0x8da5cb5b\n      eq\n      tag_8\n      jumpi\n      dup1\n      0xaba46a5f\n      eq\n      tag_9\n      jumpi\n      dup1\n      0xbc167263\n      eq\n      tag_10\n      jumpi\n      jump(tag_1)\n    tag_11:\n      dup1\n      0x06a3e4e6\n      eq\n      tag_2\n      jumpi\n      dup1\n      0x1dd45606\n      eq\n      tag_3\n      jumpi\n      dup1\n      0x22d9a1ee\n      eq\n      tag_4\n      jumpi\n      dup1\n      0x305954b6\n      eq\n      tag_5\n      jumpi\n    tag_1:\n      0x00\n      dup1\n      revert\n        /* \"Alcancia.sol\":1049:1152  function cambiarEstadoAlcancia() public soloOwner {... */\n    tag_2:\n      callvalue\n      dup1\n      iszero\n      tag_12\n      jumpi\n      0x00\n      dup1\n      revert\n    tag_12:\n      pop\n      tag_13\n      tag_14\n      jump\t// in\n    tag_13:\n      stop\n        /* \"Alcancia.sol\":802:918  function cambiarNombre(string memory _nuevoNombre) public soloOwner {... */\n    tag_3:\n      callvalue\n      dup1\n      iszero\n      tag_15\n      jumpi\n      0x00\n      dup1\n      revert\n    tag_15:\n      pop\n      tag_16\n      0x04\n      dup1\n      calldatasize\n      sub\n      dup2\n      add\n      swap1\n      tag_17\n      swap2\n      swap1\n      tag_18\n      jump\t// in\n    tag_17:\n      tag_19\n      jump\t// in\n    tag_16:\n      stop\n        /* \"Alcancia.sol\":1160:1260  function obtenerBalance() public view returns (uint) {... */\n    tag_4:\n      callvalue\n      dup1\n      iszero\n      tag_20\n      jumpi\n      0x00\n      dup1\n      revert\n    tag_20:\n      pop\n      tag_21\n      tag_22\n      jump\t// in\n    tag_21:\n      mload(0x40)\n      tag_23\n      swap2\n      swap1\n      tag_24\n      jump\t// in\n    tag_23:\n      mload(0x40)\n      dup1\n      swap2\n      sub\n      swap1\n      return\n        /* \"Alcancia.sol\":273:300  bool public alcanciaAbierta */\n    tag_5:\n      callvalue\n      dup1\n      iszero\n      tag_25\n      jumpi\n      0x00\n      dup1\n      revert\n    tag_25:\n      pop\n      tag_26\n      tag_27\n      jump\t// in\n    tag_26:\n      mload(0x40)\n      tag_28\n      swap2\n      swap1\n      tag_29\n      jump\t// in\n    tag_28:\n      mload(0x40)\n      dup1\n      swap2\n      sub\n      swap1\n      return\n        /* \"Alcancia.sol\":681:794  function depositarFondos() public payable {... */\n    tag_6:\n      tag_30\n      tag_31\n      jump\t// in\n    tag_30:\n      stop\n        /* \"Alcancia.sol\":158:186  uint public cantidadObjetivo */\n    tag_7:\n      callvalue\n      dup1\n      iszero\n      tag_32\n      jumpi\n      0x00\n      dup1\n      revert\n    tag_32:\n      pop\n      tag_33\n      tag_34\n      jump\t// in\n    tag_33:\n      mload(0x40)\n      tag_35\n      swap2\n      swap1\n      tag_24\n      jump\t// in\n    tag_35:\n      mload(0x40)\n      dup1\n      swap2\n      sub\n      swap1\n      return\n        /* \"Alcancia.sol\":92:112  address public owner */\n    tag_8:\n      callvalue\n      dup1\n      iszero\n      tag_36\n      jumpi\n      0x00\n      dup1\n      revert\n    tag_36:\n      pop\n      tag_37\n      tag_38\n      jump\t// in\n    tag_37:\n      mload(0x40)\n      tag_39\n      swap2\n      swap1\n      tag_40\n      jump\t// in\n    tag_39:\n      mload(0x40)\n      dup1\n      swap2\n      sub\n      swap1\n      return\n        /* \"Alcancia.sol\":210:238  string public nombreAlcancia */\n    tag_9:\n      callvalue\n      dup1\n      iszero\n      tag_41\n      jumpi\n      0x00\n      dup1\n      revert\n    tag_41:\n      pop\n      tag_42\n      tag_43\n      jump\t// in\n    tag_42:\n      mload(0x40)\n      tag_44\n      swap2\n      swap1\n      tag_45\n      jump\t// in\n    tag_44:\n      mload(0x40)\n      dup1\n      swap2\n      sub\n      swap1\n      return\n        /* \"Alcancia.sol\":926:1041  function cambiarObjetivo(uint _nuevoObjetivo) public soloOwner {... */\n    tag_10:\n      callvalue\n      dup1\n      iszero\n      tag_46\n      jumpi\n      0x00\n      dup1\n      revert\n    tag_46:\n      pop\n      tag_47\n      0x04\n      dup1\n      calldatasize\n      sub\n      dup2\n      add\n      swap1\n      tag_48\n      swap2\n      swap1\n      tag_49\n      jump\t// in\n    tag_48:\n      tag_50\n      jump\t// in\n    tag_47:\n      stop\n        /* \"Alcancia.sol\":1049:1152  function cambiarEstadoAlcancia() public soloOwner {... */\n    tag_14:\n        /* \"Alcancia.sol\":627:632  owner */\n      0x00\n      dup1\n      sload\n      swap1\n      0x0100\n      exp\n      swap1\n      div\n      0xffffffffffffffffffffffffffffffffffffffff\n      and\n        /* \"Alcancia.sol\":613:632  msg.sender == owner */\n      0xffffffffffffffffffffffffffffffffffffffff\n      and\n        /* \"Alcancia.sol\":613:623  msg.sender */\n      caller\n        /* \"Alcancia.sol\":613:632  msg.sender == owner */\n      0xffffffffffffffffffffffffffffffffffffffff\n      and\n      eq\n        /* \"Alcancia.sol\":605:653  require(msg.sender == owner, \"No eres el dueno\") */\n      tag_52\n      jumpi\n      mload(0x40)\n      0x08c379a000000000000000000000000000000000000000000000000000000000\n      dup2\n      mstore\n      0x04\n      add\n      tag_53\n      swap1\n      tag_54\n      jump\t// in\n    tag_53:\n      mload(0x40)\n      dup1\n      swap2\n      sub\n      swap1\n      revert\n    tag_52:\n        /* \"Alcancia.sol\":1129:1144  alcanciaAbierta */\n      0x03\n      0x00\n      swap1\n      sload\n      swap1\n      0x0100\n      exp\n      swap1\n      div\n      0xff\n      and\n        /* \"Alcancia.sol\":1128:1144  !alcanciaAbierta */\n      iszero\n        /* \"Alcancia.sol\":1110:1125  alcanciaAbierta */\n      0x03\n      0x00\n        /* \"Alcancia.sol\":1110:1144  alcanciaAbierta = !alcanciaAbierta */\n      0x0100\n      exp\n      dup2\n      sload\n      dup2\n      0xff\n      mul\n      not\n      and\n      swap1\n      dup4\n      iszero\n      iszero\n      mul\n      or\n      swap1\n      sstore\n      pop\n        /* \"Alcancia.sol\":1049:1152  function cambiarEstadoAlcancia() public soloOwner {... */\n      jump\t// out\n        /* \"Alcancia.sol\":802:918  function cambiarNombre(string memory _nuevoNombre) public soloOwner {... */\n    tag_19:\n        /* \"Alcancia.sol\":627:632  owner */\n      0x00\n      dup1\n      sload\n      swap1\n      0x0100\n      exp\n      swap1\n      div\n      0xffffffffffffffffffffffffffffffffffffffff\n      and\n        /* \"Alcancia.sol\":613:632  msg.sender == owner */\n      0xffffffffffffffffffffffffffffffffffffffff\n      and\n        /* \"Alcancia.sol\":613:623  msg.sender */\n      caller\n        /* \"Alcancia.sol\":613:632  msg.sender == owner */\n      0xffffffffffffffffffffffffffffffffffffffff\n      and\n      eq\n        /* \"Alcancia.sol\":605:653  require(msg.sender == owner, \"No eres el dueno\") */\n      tag_57\n      jumpi\n      mload(0x40)\n      0x08c379a000000000000000000000000000000000000000000000000000000000\n      dup2\n      mstore\n      0x04\n      add\n      tag_58\n      swap1\n      tag_54\n      jump\t// in\n    tag_58:\n      mload(0x40)\n      dup1\n      swap2\n      sub\n      swap1\n      revert\n    tag_57:\n        /* \"Alcancia.sol\":898:910  _nuevoNombre */\n      dup1\n        /* \"Alcancia.sol\":881:895  nombreAlcancia */\n      0x02\n        /* \"Alcancia.sol\":881:910  nombreAlcancia = _nuevoNombre */\n      swap1\n      dup2\n      tag_60\n      swap2\n      swap1\n      tag_61\n      jump\t// in\n    tag_60:\n      pop\n        /* \"Alcancia.sol\":802:918  function cambiarNombre(string memory _nuevoNombre) public soloOwner {... */\n      pop\n      jump\t// out\n        /* \"Alcancia.sol\":1160:1260  function obtenerBalance() public view returns (uint) {... */\n    tag_22:\n        /* \"Alcancia.sol\":1207:1211  uint */\n      0x00\n        /* \"Alcancia.sol\":1231:1252  address(this).balance */\n      selfbalance\n        /* \"Alcancia.sol\":1224:1252  return address(this).balance */\n      swap1\n      pop\n        /* \"Alcancia.sol\":1160:1260  function obtenerBalance() public view returns (uint) {... */\n      swap1\n      jump\t// out\n        /* \"Alcancia.sol\":273:300  bool public alcanciaAbierta */\n    tag_27:\n      0x03\n      0x00\n      swap1\n      sload\n      swap1\n      0x0100\n      exp\n      swap1\n      div\n      0xff\n      and\n      dup2\n      jump\t// out\n        /* \"Alcancia.sol\":681:794  function depositarFondos() public payable {... */\n    tag_31:\n        /* \"Alcancia.sol\":742:757  alcanciaAbierta */\n      0x03\n      0x00\n      swap1\n      sload\n      swap1\n      0x0100\n      exp\n      swap1\n      div\n      0xff\n      and\n        /* \"Alcancia.sol\":734:786  require(alcanciaAbierta, \"La alcancia esta cerrada\") */\n      tag_64\n      jumpi\n      mload(0x40)\n      0x08c379a000000000000000000000000000000000000000000000000000000000\n      dup2\n      mstore\n      0x04\n      add\n      tag_65\n      swap1\n      tag_66\n      jump\t// in\n    tag_65:\n      mload(0x40)\n      dup1\n      swap2\n      sub\n      swap1\n      revert\n    tag_64:\n        /* \"Alcancia.sol\":681:794  function depositarFondos() public payable {... */\n      jump\t// out\n        /* \"Alcancia.sol\":158:186  uint public cantidadObjetivo */\n    tag_34:\n      sload(0x01)\n      dup2\n      jump\t// out\n        /* \"Alcancia.sol\":92:112  address public owner */\n    tag_38:\n      0x00\n      dup1\n      sload\n      swap1\n      0x0100\n      exp\n      swap1\n      div\n      0xffffffffffffffffffffffffffffffffffffffff\n      and\n      dup2\n      jump\t// out\n        /* \"Alcancia.sol\":210:238  string public nombreAlcancia */\n    tag_43:\n      0x02\n      dup1\n      sload\n      tag_67\n      swap1\n      tag_68\n      jump\t// in\n    tag_67:\n      dup1\n      0x1f\n      add\n      0x20\n      dup1\n      swap2\n      div\n      mul\n      0x20\n      add\n      mload(0x40)\n      swap1\n      dup2\n      add\n      0x40\n      mstore\n      dup1\n      swap3\n      swap2\n      swap1\n      dup2\n      dup2\n      mstore\n      0x20\n      add\n      dup3\n      dup1\n      sload\n      tag_69\n      swap1\n      tag_68\n      jump\t// in\n    tag_69:\n      dup1\n      iszero\n      tag_70\n      jumpi\n      dup1\n      0x1f\n      lt\n      tag_71\n      jumpi\n      0x0100\n      dup1\n      dup4\n      sload\n      div\n      mul\n      dup4\n      mstore\n      swap2\n      0x20\n      add\n      swap2\n      jump(tag_70)\n    tag_71:\n      dup3\n      add\n      swap2\n      swap1\n      0x00\n      mstore\n      keccak256(0x00, 0x20)\n      swap1\n    tag_72:\n      dup2\n      sload\n      dup2\n      mstore\n      swap1\n      0x01\n      add\n      swap1\n      0x20\n      add\n      dup1\n      dup4\n      gt\n      tag_72\n      jumpi\n      dup3\n      swap1\n      sub\n      0x1f\n      and\n      dup3\n      add\n      swap2\n    tag_70:\n      pop\n      pop\n      pop\n      pop\n      pop\n      dup2\n      jump\t// out\n        /* \"Alcancia.sol\":926:1041  function cambiarObjetivo(uint _nuevoObjetivo) public soloOwner {... */\n    tag_50:\n        /* \"Alcancia.sol\":627:632  owner */\n      0x00\n      dup1\n      sload\n      swap1\n      0x0100\n      exp\n      swap1\n      div\n      0xffffffffffffffffffffffffffffffffffffffff\n      and\n        /* \"Alcancia.sol\":613:632  msg.sender == owner */\n      0xffffffffffffffffffffffffffffffffffffffff\n      and\n        /* \"Alcancia.sol\":613:623  msg.sender */\n      caller\n        /* \"Alcancia.sol\":613:632  msg.sender == owner */\n      0xffffffffffffffffffffffffffffffffffffffff\n      and\n      eq\n        /* \"Alcancia.sol\":605:653  require(msg.sender == owner, \"No eres el dueno\") */\n      tag_74\n      jumpi\n      mload(0x40)\n      0x08c379a000000000000000000000000000000000000000000000000000000000\n      dup2\n      mstore\n      0x04\n      add\n      tag_75\n      swap1\n      tag_54\n      jump\t// in\n    tag_75:\n      mload(0x40)\n      dup1\n      swap2\n      sub\n      swap1\n      revert\n    tag_74:\n        /* \"Alcancia.sol\":1019:1033  _nuevoObjetivo */\n      dup1\n        /* \"Alcancia.sol\":1000:1016  cantidadObjetivo */\n      0x01\n        /* \"Alcancia.sol\":1000:1033  cantidadObjetivo = _nuevoObjetivo */\n      dup2\n      swap1\n      sstore\n      pop\n        /* \"Alcancia.sol\":926:1041  function cambiarObjetivo(uint _nuevoObjetivo) public soloOwner {... */\n      pop\n      jump\t// out\n        /* \"#utility.yul\":7:82   */\n    tag_77:\n        /* \"#utility.yul\":40:46   */\n      0x00\n        /* \"#utility.yul\":73:75   */\n      0x40\n        /* \"#utility.yul\":67:76   */\n      mload\n        /* \"#utility.yul\":57:76   */\n      swap1\n      pop\n        /* \"#utility.yul\":7:82   */\n      swap1\n      jump\t// out\n        /* \"#utility.yul\":88:205   */\n    tag_78:\n        /* \"#utility.yul\":197:198   */\n      0x00\n        /* \"#utility.yul\":194:195   */\n      dup1\n        /* \"#utility.yul\":187:199   */\n      revert\n        /* \"#utility.yul\":211:328   */\n    tag_79:\n        /* \"#utility.yul\":320:321   */\n      0x00\n        /* \"#utility.yul\":317:318   */\n      dup1\n        /* \"#utility.yul\":310:322   */\n      revert\n        /* \"#utility.yul\":334:451   */\n    tag_80:\n        /* \"#utility.yul\":443:444   */\n      0x00\n        /* \"#utility.yul\":440:441   */\n      dup1\n        /* \"#utility.yul\":433:445   */\n      revert\n        /* \"#utility.yul\":457:574   */\n    tag_81:\n        /* \"#utility.yul\":566:567   */\n      0x00\n        /* \"#utility.yul\":563:564   */\n      dup1\n        /* \"#utility.yul\":556:568   */\n      revert\n        /* \"#utility.yul\":580:682   */\n    tag_82:\n        /* \"#utility.yul\":621:627   */\n      0x00\n        /* \"#utility.yul\":672:674   */\n      0x1f\n        /* \"#utility.yul\":668:675   */\n      not\n        /* \"#utility.yul\":663:665   */\n      0x1f\n        /* \"#utility.yul\":656:661   */\n      dup4\n        /* \"#utility.yul\":652:666   */\n      add\n        /* \"#utility.yul\":648:676   */\n      and\n        /* \"#utility.yul\":638:676   */\n      swap1\n      pop\n        /* \"#utility.yul\":580:682   */\n      swap2\n      swap1\n      pop\n      jump\t// out\n        /* \"#utility.yul\":688:868   */\n    tag_83:\n        /* \"#utility.yul\":736:813   */\n      0x4e487b7100000000000000000000000000000000000000000000000000000000\n        /* \"#utility.yul\":733:734   */\n      0x00\n        /* \"#utility.yul\":726:814   */\n      mstore\n        /* \"#utility.yul\":833:837   */\n      0x41\n        /* \"#utility.yul\":830:831   */\n      0x04\n        /* \"#utility.yul\":823:838   */\n      mstore\n        /* \"#utility.yul\":857:861   */\n      0x24\n        /* \"#utility.yul\":854:855   */\n      0x00\n        /* \"#utility.yul\":847:862   */\n      revert\n        /* \"#utility.yul\":874:1155   */\n    tag_84:\n        /* \"#utility.yul\":957:984   */\n      tag_132\n        /* \"#utility.yul\":979:983   */\n      dup3\n        /* \"#utility.yul\":957:984   */\n      tag_82\n      jump\t// in\n    tag_132:\n        /* \"#utility.yul\":949:955   */\n      dup2\n        /* \"#utility.yul\":945:985   */\n      add\n        /* \"#utility.yul\":1087:1093   */\n      dup2\n        /* \"#utility.yul\":1075:1085   */\n      dup2\n        /* \"#utility.yul\":1072:1094   */\n      lt\n        /* \"#utility.yul\":1051:1069   */\n      0xffffffffffffffff\n        /* \"#utility.yul\":1039:1049   */\n      dup3\n        /* \"#utility.yul\":1036:1070   */\n      gt\n        /* \"#utility.yul\":1033:1095   */\n      or\n        /* \"#utility.yul\":1030:1118   */\n      iszero\n      tag_133\n      jumpi\n        /* \"#utility.yul\":1098:1116   */\n      tag_134\n      tag_83\n      jump\t// in\n    tag_134:\n        /* \"#utility.yul\":1030:1118   */\n    tag_133:\n        /* \"#utility.yul\":1138:1148   */\n      dup1\n        /* \"#utility.yul\":1134:1136   */\n      0x40\n        /* \"#utility.yul\":1127:1149   */\n      mstore\n        /* \"#utility.yul\":917:1155   */\n      pop\n        /* \"#utility.yul\":874:1155   */\n      pop\n      pop\n      jump\t// out\n        /* \"#utility.yul\":1161:1290   */\n    tag_85:\n        /* \"#utility.yul\":1195:1201   */\n      0x00\n        /* \"#utility.yul\":1222:1242   */\n      tag_136\n      tag_77\n      jump\t// in\n    tag_136:\n        /* \"#utility.yul\":1212:1242   */\n      swap1\n      pop\n        /* \"#utility.yul\":1251:1284   */\n      tag_137\n        /* \"#utility.yul\":1279:1283   */\n      dup3\n        /* \"#utility.yul\":1271:1277   */\n      dup3\n        /* \"#utility.yul\":1251:1284   */\n      tag_84\n      jump\t// in\n    tag_137:\n        /* \"#utility.yul\":1161:1290   */\n      swap2\n      swap1\n      pop\n      jump\t// out\n        /* \"#utility.yul\":1296:1604   */\n    tag_86:\n        /* \"#utility.yul\":1358:1362   */\n      0x00\n        /* \"#utility.yul\":1448:1466   */\n      0xffffffffffffffff\n        /* \"#utility.yul\":1440:1446   */\n      dup3\n        /* \"#utility.yul\":1437:1467   */\n      gt\n        /* \"#utility.yul\":1434:1490   */\n      iszero\n      tag_139\n      jumpi\n        /* \"#utility.yul\":1470:1488   */\n      tag_140\n      tag_83\n      jump\t// in\n    tag_140:\n        /* \"#utility.yul\":1434:1490   */\n    tag_139:\n        /* \"#utility.yul\":1508:1537   */\n      tag_141\n        /* \"#utility.yul\":1530:1536   */\n      dup3\n        /* \"#utility.yul\":1508:1537   */\n      tag_82\n      jump\t// in\n    tag_141:\n        /* \"#utility.yul\":1500:1537   */\n      swap1\n      pop\n        /* \"#utility.yul\":1592:1596   */\n      0x20\n        /* \"#utility.yul\":1586:1590   */\n      dup2\n        /* \"#utility.yul\":1582:1597   */\n      add\n        /* \"#utility.yul\":1574:1597   */\n      swap1\n      pop\n        /* \"#utility.yul\":1296:1604   */\n      swap2\n      swap1\n      pop\n      jump\t// out\n        /* \"#utility.yul\":1610:1756   */\n    tag_87:\n        /* \"#utility.yul\":1707:1713   */\n      dup3\n        /* \"#utility.yul\":1702:1705   */\n      dup2\n        /* \"#utility.yul\":1697:1700   */\n      dup4\n        /* \"#utility.yul\":1684:1714   */\n      calldatacopy\n        /* \"#utility.yul\":1748:1749   */\n      0x00\n        /* \"#utility.yul\":1739:1745   */\n      dup4\n        /* \"#utility.yul\":1734:1737   */\n      dup4\n        /* \"#utility.yul\":1730:1746   */\n      add\n        /* \"#utility.yul\":1723:1750   */\n      mstore\n        /* \"#utility.yul\":1610:1756   */\n      pop\n      pop\n      pop\n      jump\t// out\n        /* \"#utility.yul\":1762:2187   */\n    tag_88:\n        /* \"#utility.yul\":1840:1845   */\n      0x00\n        /* \"#utility.yul\":1865:1931   */\n      tag_144\n        /* \"#utility.yul\":1881:1930   */\n      tag_145\n        /* \"#utility.yul\":1923:1929   */\n      dup5\n        /* \"#utility.yul\":1881:1930   */\n      tag_86\n      jump\t// in\n    tag_145:\n        /* \"#utility.yul\":1865:1931   */\n      tag_85\n      jump\t// in\n    tag_144:\n        /* \"#utility.yul\":1856:1931   */\n      swap1\n      pop\n        /* \"#utility.yul\":1954:1960   */\n      dup3\n        /* \"#utility.yul\":1947:1952   */\n      dup2\n        /* \"#utility.yul\":1940:1961   */\n      mstore\n        /* \"#utility.yul\":1992:1996   */\n      0x20\n        /* \"#utility.yul\":1985:1990   */\n      dup2\n        /* \"#utility.yul\":1981:1997   */\n      add\n        /* \"#utility.yul\":2030:2033   */\n      dup5\n        /* \"#utility.yul\":2021:2027   */\n      dup5\n        /* \"#utility.yul\":2016:2019   */\n      dup5\n        /* \"#utility.yul\":2012:2028   */\n      add\n        /* \"#utility.yul\":2009:2034   */\n      gt\n        /* \"#utility.yul\":2006:2118   */\n      iszero\n      tag_146\n      jumpi\n        /* \"#utility.yul\":2037:2116   */\n      tag_147\n      tag_81\n      jump\t// in\n    tag_147:\n        /* \"#utility.yul\":2006:2118   */\n    tag_146:\n        /* \"#utility.yul\":2127:2181   */\n      tag_148\n        /* \"#utility.yul\":2174:2180   */\n      dup5\n        /* \"#utility.yul\":2169:2172   */\n      dup3\n        /* \"#utility.yul\":2164:2167   */\n      dup6\n        /* \"#utility.yul\":2127:2181   */\n      tag_87\n      jump\t// in\n    tag_148:\n        /* \"#utility.yul\":1846:2187   */\n      pop\n        /* \"#utility.yul\":1762:2187   */\n      swap4\n      swap3\n      pop\n      pop\n      pop\n      jump\t// out\n        /* \"#utility.yul\":2207:2547   */\n    tag_89:\n        /* \"#utility.yul\":2263:2268   */\n      0x00\n        /* \"#utility.yul\":2312:2315   */\n      dup3\n        /* \"#utility.yul\":2305:2309   */\n      0x1f\n        /* \"#utility.yul\":2297:2303   */\n      dup4\n        /* \"#utility.yul\":2293:2310   */\n      add\n        /* \"#utility.yul\":2289:2316   */\n      slt\n        /* \"#utility.yul\":2279:2401   */\n      tag_150\n      jumpi\n        /* \"#utility.yul\":2320:2399   */\n      tag_151\n      tag_80\n      jump\t// in\n    tag_151:\n        /* \"#utility.yul\":2279:2401   */\n    tag_150:\n        /* \"#utility.yul\":2437:2443   */\n      dup2\n        /* \"#utility.yul\":2424:2444   */\n      calldataload\n        /* \"#utility.yul\":2462:2541   */\n      tag_152\n        /* \"#utility.yul\":2537:2540   */\n      dup5\n        /* \"#utility.yul\":2529:2535   */\n      dup3\n        /* \"#utility.yul\":2522:2526   */\n      0x20\n        /* \"#utility.yul\":2514:2520   */\n      dup7\n        /* \"#utility.yul\":2510:2527   */\n      add\n        /* \"#utility.yul\":2462:2541   */\n      tag_88\n      jump\t// in\n    tag_152:\n        /* \"#utility.yul\":2453:2541   */\n      swap2\n      pop\n        /* \"#utility.yul\":2269:2547   */\n      pop\n        /* \"#utility.yul\":2207:2547   */\n      swap3\n      swap2\n      pop\n      pop\n      jump\t// out\n        /* \"#utility.yul\":2553:3062   */\n    tag_18:\n        /* \"#utility.yul\":2622:2628   */\n      0x00\n        /* \"#utility.yul\":2671:2673   */\n      0x20\n        /* \"#utility.yul\":2659:2668   */\n      dup3\n        /* \"#utility.yul\":2650:2657   */\n      dup5\n        /* \"#utility.yul\":2646:2669   */\n      sub\n        /* \"#utility.yul\":2642:2674   */\n      slt\n        /* \"#utility.yul\":2639:2758   */\n      iszero\n      tag_154\n      jumpi\n        /* \"#utility.yul\":2677:2756   */\n      tag_155\n      tag_78\n      jump\t// in\n    tag_155:\n        /* \"#utility.yul\":2639:2758   */\n    tag_154:\n        /* \"#utility.yul\":2825:2826   */\n      0x00\n        /* \"#utility.yul\":2814:2823   */\n      dup3\n        /* \"#utility.yul\":2810:2827   */\n      add\n        /* \"#utility.yul\":2797:2828   */\n      calldataload\n        /* \"#utility.yul\":2855:2873   */\n      0xffffffffffffffff\n        /* \"#utility.yul\":2847:2853   */\n      dup2\n        /* \"#utility.yul\":2844:2874   */\n      gt\n        /* \"#utility.yul\":2841:2958   */\n      iszero\n      tag_156\n      jumpi\n        /* \"#utility.yul\":2877:2956   */\n      tag_157\n      tag_79\n      jump\t// in\n    tag_157:\n        /* \"#utility.yul\":2841:2958   */\n    tag_156:\n        /* \"#utility.yul\":2982:3045   */\n      tag_158\n        /* \"#utility.yul\":3037:3044   */\n      dup5\n        /* \"#utility.yul\":3028:3034   */\n      dup3\n        /* \"#utility.yul\":3017:3026   */\n      dup6\n        /* \"#utility.yul\":3013:3035   */\n      add\n        /* \"#utility.yul\":2982:3045   */\n      tag_89\n      jump\t// in\n    tag_158:\n        /* \"#utility.yul\":2972:3045   */\n      swap2\n      pop\n        /* \"#utility.yul\":2768:3055   */\n      pop\n        /* \"#utility.yul\":2553:3062   */\n      swap3\n      swap2\n      pop\n      pop\n      jump\t// out\n        /* \"#utility.yul\":3068:3145   */\n    tag_90:\n        /* \"#utility.yul\":3105:3112   */\n      0x00\n        /* \"#utility.yul\":3134:3139   */\n      dup2\n        /* \"#utility.yul\":3123:3139   */\n      swap1\n      pop\n        /* \"#utility.yul\":3068:3145   */\n      swap2\n      swap1\n      pop\n      jump\t// out\n        /* \"#utility.yul\":3151:3269   */\n    tag_91:\n        /* \"#utility.yul\":3238:3262   */\n      tag_161\n        /* \"#utility.yul\":3256:3261   */\n      dup2\n        /* \"#utility.yul\":3238:3262   */\n      tag_90\n      jump\t// in\n    tag_161:\n        /* \"#utility.yul\":3233:3236   */\n      dup3\n        /* \"#utility.yul\":3226:3263   */\n      mstore\n        /* \"#utility.yul\":3151:3269   */\n      pop\n      pop\n      jump\t// out\n        /* \"#utility.yul\":3275:3497   */\n    tag_24:\n        /* \"#utility.yul\":3368:3372   */\n      0x00\n        /* \"#utility.yul\":3406:3408   */\n      0x20\n        /* \"#utility.yul\":3395:3404   */\n      dup3\n        /* \"#utility.yul\":3391:3409   */\n      add\n        /* \"#utility.yul\":3383:3409   */\n      swap1\n      pop\n        /* \"#utility.yul\":3419:3490   */\n      tag_163\n        /* \"#utility.yul\":3487:3488   */\n      0x00\n        /* \"#utility.yul\":3476:3485   */\n      dup4\n        /* \"#utility.yul\":3472:3489   */\n      add\n        /* \"#utility.yul\":3463:3469   */\n      dup5\n        /* \"#utility.yul\":3419:3490   */\n      tag_91\n      jump\t// in\n    tag_163:\n        /* \"#utility.yul\":3275:3497   */\n      swap3\n      swap2\n      pop\n      pop\n      jump\t// out\n        /* \"#utility.yul\":3503:3593   */\n    tag_92:\n        /* \"#utility.yul\":3537:3544   */\n      0x00\n        /* \"#utility.yul\":3580:3585   */\n      dup2\n        /* \"#utility.yul\":3573:3586   */\n      iszero\n        /* \"#utility.yul\":3566:3587   */\n      iszero\n        /* \"#utility.yul\":3555:3587   */\n      swap1\n      pop\n        /* \"#utility.yul\":3503:3593   */\n      swap2\n      swap1\n      pop\n      jump\t// out\n        /* \"#utility.yul\":3599:3708   */\n    tag_93:\n        /* \"#utility.yul\":3680:3701   */\n      tag_166\n        /* \"#utility.yul\":3695:3700   */\n      dup2\n        /* \"#utility.yul\":3680:3701   */\n      tag_92\n      jump\t// in\n    tag_166:\n        /* \"#utility.yul\":3675:3678   */\n      dup3\n        /* \"#utility.yul\":3668:3702   */\n      mstore\n        /* \"#utility.yul\":3599:3708   */\n      pop\n      pop\n      jump\t// out\n        /* \"#utility.yul\":3714:3924   */\n    tag_29:\n        /* \"#utility.yul\":3801:3805   */\n      0x00\n        /* \"#utility.yul\":3839:3841   */\n      0x20\n        /* \"#utility.yul\":3828:3837   */\n      dup3\n        /* \"#utility.yul\":3824:3842   */\n      add\n        /* \"#utility.yul\":3816:3842   */\n      swap1\n      pop\n        /* \"#utility.yul\":3852:3917   */\n      tag_168\n        /* \"#utility.yul\":3914:3915   */\n      0x00\n        /* \"#utility.yul\":3903:3912   */\n      dup4\n        /* \"#utility.yul\":3899:3916   */\n      add\n        /* \"#utility.yul\":3890:3896   */\n      dup5\n        /* \"#utility.yul\":3852:3917   */\n      tag_93\n      jump\t// in\n    tag_168:\n        /* \"#utility.yul\":3714:3924   */\n      swap3\n      swap2\n      pop\n      pop\n      jump\t// out\n        /* \"#utility.yul\":3930:4056   */\n    tag_94:\n        /* \"#utility.yul\":3967:3974   */\n      0x00\n        /* \"#utility.yul\":4007:4049   */\n      0xffffffffffffffffffffffffffffffffffffffff\n        /* \"#utility.yul\":4000:4005   */\n      dup3\n        /* \"#utility.yul\":3996:4050   */\n      and\n        /* \"#utility.yul\":3985:4050   */\n      swap1\n      pop\n        /* \"#utility.yul\":3930:4056   */\n      swap2\n      swap1\n      pop\n      jump\t// out\n        /* \"#utility.yul\":4062:4158   */\n    tag_95:\n        /* \"#utility.yul\":4099:4106   */\n      0x00\n        /* \"#utility.yul\":4128:4152   */\n      tag_171\n        /* \"#utility.yul\":4146:4151   */\n      dup3\n        /* \"#utility.yul\":4128:4152   */\n      tag_94\n      jump\t// in\n    tag_171:\n        /* \"#utility.yul\":4117:4152   */\n      swap1\n      pop\n        /* \"#utility.yul\":4062:4158   */\n      swap2\n      swap1\n      pop\n      jump\t// out\n        /* \"#utility.yul\":4164:4282   */\n    tag_96:\n        /* \"#utility.yul\":4251:4275   */\n      tag_173\n        /* \"#utility.yul\":4269:4274   */\n      dup2\n        /* \"#utility.yul\":4251:4275   */\n      tag_95\n      jump\t// in\n    tag_173:\n        /* \"#utility.yul\":4246:4249   */\n      dup3\n        /* \"#utility.yul\":4239:4276   */\n      mstore\n        /* \"#utility.yul\":4164:4282   */\n      pop\n      pop\n      jump\t// out\n        /* \"#utility.yul\":4288:4510   */\n    tag_40:\n        /* \"#utility.yul\":4381:4385   */\n      0x00\n        /* \"#utility.yul\":4419:4421   */\n      0x20\n        /* \"#utility.yul\":4408:4417   */\n      dup3\n        /* \"#utility.yul\":4404:4422   */\n      add\n        /* \"#utility.yul\":4396:4422   */\n      swap1\n      pop\n        /* \"#utility.yul\":4432:4503   */\n      tag_175\n        /* \"#utility.yul\":4500:4501   */\n      0x00\n        /* \"#utility.yul\":4489:4498   */\n      dup4\n        /* \"#utility.yul\":4485:4502   */\n      add\n        /* \"#utility.yul\":4476:4482   */\n      dup5\n        /* \"#utility.yul\":4432:4503   */\n      tag_96\n      jump\t// in\n    tag_175:\n        /* \"#utility.yul\":4288:4510   */\n      swap3\n      swap2\n      pop\n      pop\n      jump\t// out\n        /* \"#utility.yul\":4516:4615   */\n    tag_97:\n        /* \"#utility.yul\":4568:4574   */\n      0x00\n        /* \"#utility.yul\":4602:4607   */\n      dup2\n        /* \"#utility.yul\":4596:4608   */\n      mload\n        /* \"#utility.yul\":4586:4608   */\n      swap1\n      pop\n        /* \"#utility.yul\":4516:4615   */\n      swap2\n      swap1\n      pop\n      jump\t// out\n        /* \"#utility.yul\":4621:4790   */\n    tag_98:\n        /* \"#utility.yul\":4705:4716   */\n      0x00\n        /* \"#utility.yul\":4739:4745   */\n      dup3\n        /* \"#utility.yul\":4734:4737   */\n      dup3\n        /* \"#utility.yul\":4727:4746   */\n      mstore\n        /* \"#utility.yul\":4779:4783   */\n      0x20\n        /* \"#utility.yul\":4774:4777   */\n      dup3\n        /* \"#utility.yul\":4770:4784   */\n      add\n        /* \"#utility.yul\":4755:4784   */\n      swap1\n      pop\n        /* \"#utility.yul\":4621:4790   */\n      swap3\n      swap2\n      pop\n      pop\n      jump\t// out\n        /* \"#utility.yul\":4796:5042   */\n    tag_99:\n        /* \"#utility.yul\":4877:4878   */\n      0x00\n        /* \"#utility.yul\":4887:5000   */\n    tag_179:\n        /* \"#utility.yul\":4901:4907   */\n      dup4\n        /* \"#utility.yul\":4898:4899   */\n      dup2\n        /* \"#utility.yul\":4895:4908   */\n      lt\n        /* \"#utility.yul\":4887:5000   */\n      iszero\n      tag_181\n      jumpi\n        /* \"#utility.yul\":4986:4987   */\n      dup1\n        /* \"#utility.yul\":4981:4984   */\n      dup3\n        /* \"#utility.yul\":4977:4988   */\n      add\n        /* \"#utility.yul\":4971:4989   */\n      mload\n        /* \"#utility.yul\":4967:4968   */\n      dup2\n        /* \"#utility.yul\":4962:4965   */\n      dup5\n        /* \"#utility.yul\":4958:4969   */\n      add\n        /* \"#utility.yul\":4951:4990   */\n      mstore\n        /* \"#utility.yul\":4923:4925   */\n      0x20\n        /* \"#utility.yul\":4920:4921   */\n      dup2\n        /* \"#utility.yul\":4916:4926   */\n      add\n        /* \"#utility.yul\":4911:4926   */\n      swap1\n      pop\n        /* \"#utility.yul\":4887:5000   */\n      jump(tag_179)\n    tag_181:\n        /* \"#utility.yul\":5034:5035   */\n      0x00\n        /* \"#utility.yul\":5025:5031   */\n      dup5\n        /* \"#utility.yul\":5020:5023   */\n      dup5\n        /* \"#utility.yul\":5016:5032   */\n      add\n        /* \"#utility.yul\":5009:5036   */\n      mstore\n        /* \"#utility.yul\":4858:5042   */\n      pop\n        /* \"#utility.yul\":4796:5042   */\n      pop\n      pop\n      pop\n      jump\t// out\n        /* \"#utility.yul\":5048:5425   */\n    tag_100:\n        /* \"#utility.yul\":5136:5139   */\n      0x00\n        /* \"#utility.yul\":5164:5203   */\n      tag_183\n        /* \"#utility.yul\":5197:5202   */\n      dup3\n        /* \"#utility.yul\":5164:5203   */\n      tag_97\n      jump\t// in\n    tag_183:\n        /* \"#utility.yul\":5219:5290   */\n      tag_184\n        /* \"#utility.yul\":5283:5289   */\n      dup2\n        /* \"#utility.yul\":5278:5281   */\n      dup6\n        /* \"#utility.yul\":5219:5290   */\n      tag_98\n      jump\t// in\n    tag_184:\n        /* \"#utility.yul\":5212:5290   */\n      swap4\n      pop\n        /* \"#utility.yul\":5299:5364   */\n      tag_185\n        /* \"#utility.yul\":5357:5363   */\n      dup2\n        /* \"#utility.yul\":5352:5355   */\n      dup6\n        /* \"#utility.yul\":5345:5349   */\n      0x20\n        /* \"#utility.yul\":5338:5343   */\n      dup7\n        /* \"#utility.yul\":5334:5350   */\n      add\n        /* \"#utility.yul\":5299:5364   */\n      tag_99\n      jump\t// in\n    tag_185:\n        /* \"#utility.yul\":5389:5418   */\n      tag_186\n        /* \"#utility.yul\":5411:5417   */\n      dup2\n        /* \"#utility.yul\":5389:5418   */\n      tag_82\n      jump\t// in\n    tag_186:\n        /* \"#utility.yul\":5384:5387   */\n      dup5\n        /* \"#utility.yul\":5380:5419   */\n      add\n        /* \"#utility.yul\":5373:5419   */\n      swap2\n      pop\n        /* \"#utility.yul\":5140:5425   */\n      pop\n        /* \"#utility.yul\":5048:5425   */\n      swap3\n      swap2\n      pop\n      pop\n      jump\t// out\n        /* \"#utility.yul\":5431:5744   */\n    tag_45:\n        /* \"#utility.yul\":5544:5548   */\n      0x00\n        /* \"#utility.yul\":5582:5584   */\n      0x20\n        /* \"#utility.yul\":5571:5580   */\n      dup3\n        /* \"#utility.yul\":5567:5585   */\n      add\n        /* \"#utility.yul\":5559:5585   */\n      swap1\n      pop\n        /* \"#utility.yul\":5631:5640   */\n      dup2\n        /* \"#utility.yul\":5625:5629   */\n      dup2\n        /* \"#utility.yul\":5621:5641   */\n      sub\n        /* \"#utility.yul\":5617:5618   */\n      0x00\n        /* \"#utility.yul\":5606:5615   */\n      dup4\n        /* \"#utility.yul\":5602:5619   */\n      add\n        /* \"#utility.yul\":5595:5642   */\n      mstore\n        /* \"#utility.yul\":5659:5737   */\n      tag_188\n        /* \"#utility.yul\":5732:5736   */\n      dup2\n        /* \"#utility.yul\":5723:5729   */\n      dup5\n        /* \"#utility.yul\":5659:5737   */\n      tag_100\n      jump\t// in\n    tag_188:\n        /* \"#utility.yul\":5651:5737   */\n      swap1\n      pop\n        /* \"#utility.yul\":5431:5744   */\n      swap3\n      swap2\n      pop\n      pop\n      jump\t// out\n        /* \"#utility.yul\":5750:5872   */\n    tag_101:\n        /* \"#utility.yul\":5823:5847   */\n      tag_190\n        /* \"#utility.yul\":5841:5846   */\n      dup2\n        /* \"#utility.yul\":5823:5847   */\n      tag_90\n      jump\t// in\n    tag_190:\n        /* \"#utility.yul\":5816:5821   */\n      dup2\n        /* \"#utility.yul\":5813:5848   */\n      eq\n        /* \"#utility.yul\":5803:5866   */\n      tag_191\n      jumpi\n        /* \"#utility.yul\":5862:5863   */\n      0x00\n        /* \"#utility.yul\":5859:5860   */\n      dup1\n        /* \"#utility.yul\":5852:5864   */\n      revert\n        /* \"#utility.yul\":5803:5866   */\n    tag_191:\n        /* \"#utility.yul\":5750:5872   */\n      pop\n      jump\t// out\n        /* \"#utility.yul\":5878:6017   */\n    tag_102:\n        /* \"#utility.yul\":5924:5929   */\n      0x00\n        /* \"#utility.yul\":5962:5968   */\n      dup2\n        /* \"#utility.yul\":5949:5969   */\n      calldataload\n        /* \"#utility.yul\":5940:5969   */\n      swap1\n      pop\n        /* \"#utility.yul\":5978:6011   */\n      tag_193\n        /* \"#utility.yul\":6005:6010   */\n      dup2\n        /* \"#utility.yul\":5978:6011   */\n      tag_101\n      jump\t// in\n    tag_193:\n        /* \"#utility.yul\":5878:6017   */\n      swap3\n      swap2\n      pop\n      pop\n      jump\t// out\n        /* \"#utility.yul\":6023:6352   */\n    tag_49:\n        /* \"#utility.yul\":6082:6088   */\n      0x00\n        /* \"#utility.yul\":6131:6133   */\n      0x20\n        /* \"#utility.yul\":6119:6128   */\n      dup3\n        /* \"#utility.yul\":6110:6117   */\n      dup5\n        /* \"#utility.yul\":6106:6129   */\n      sub\n        /* \"#utility.yul\":6102:6134   */\n      slt\n        /* \"#utility.yul\":6099:6218   */\n      iszero\n      tag_195\n      jumpi\n        /* \"#utility.yul\":6137:6216   */\n      tag_196\n      tag_78\n      jump\t// in\n    tag_196:\n        /* \"#utility.yul\":6099:6218   */\n    tag_195:\n        /* \"#utility.yul\":6257:6258   */\n      0x00\n        /* \"#utility.yul\":6282:6335   */\n      tag_197\n        /* \"#utility.yul\":6327:6334   */\n      dup5\n        /* \"#utility.yul\":6318:6324   */\n      dup3\n        /* \"#utility.yul\":6307:6316   */\n      dup6\n        /* \"#utility.yul\":6303:6325   */\n      add\n        /* \"#utility.yul\":6282:6335   */\n      tag_102\n      jump\t// in\n    tag_197:\n        /* \"#utility.yul\":6272:6335   */\n      swap2\n      pop\n        /* \"#utility.yul\":6228:6345   */\n      pop\n        /* \"#utility.yul\":6023:6352   */\n      swap3\n      swap2\n      pop\n      pop\n      jump\t// out\n        /* \"#utility.yul\":6358:6524   */\n    tag_103:\n        /* \"#utility.yul\":6498:6516   */\n      0x4e6f206572657320656c206475656e6f00000000000000000000000000000000\n        /* \"#utility.yul\":6494:6495   */\n      0x00\n        /* \"#utility.yul\":6486:6492   */\n      dup3\n        /* \"#utility.yul\":6482:6496   */\n      add\n        /* \"#utility.yul\":6475:6517   */\n      mstore\n        /* \"#utility.yul\":6358:6524   */\n      pop\n      jump\t// out\n        /* \"#utility.yul\":6530:6896   */\n    tag_104:\n        /* \"#utility.yul\":6672:6675   */\n      0x00\n        /* \"#utility.yul\":6693:6760   */\n      tag_200\n        /* \"#utility.yul\":6757:6759   */\n      0x10\n        /* \"#utility.yul\":6752:6755   */\n      dup4\n        /* \"#utility.yul\":6693:6760   */\n      tag_98\n      jump\t// in\n    tag_200:\n        /* \"#utility.yul\":6686:6760   */\n      swap2\n      pop\n        /* \"#utility.yul\":6769:6862   */\n      tag_201\n        /* \"#utility.yul\":6858:6861   */\n      dup3\n        /* \"#utility.yul\":6769:6862   */\n      tag_103\n      jump\t// in\n    tag_201:\n        /* \"#utility.yul\":6887:6889   */\n      0x20\n        /* \"#utility.yul\":6882:6885   */\n      dup3\n        /* \"#utility.yul\":6878:6890   */\n      add\n        /* \"#utility.yul\":6871:6890   */\n      swap1\n      pop\n        /* \"#utility.yul\":6530:6896   */\n      swap2\n      swap1\n      pop\n      jump\t// out\n        /* \"#utility.yul\":6902:7321   */\n    tag_54:\n        /* \"#utility.yul\":7068:7072   */\n      0x00\n        /* \"#utility.yul\":7106:7108   */\n      0x20\n        /* \"#utility.yul\":7095:7104   */\n      dup3\n        /* \"#utility.yul\":7091:7109   */\n      add\n        /* \"#utility.yul\":7083:7109   */\n      swap1\n      pop\n        /* \"#utility.yul\":7155:7164   */\n      dup2\n        /* \"#utility.yul\":7149:7153   */\n      dup2\n        /* \"#utility.yul\":7145:7165   */\n      sub\n        /* \"#utility.yul\":7141:7142   */\n      0x00\n        /* \"#utility.yul\":7130:7139   */\n      dup4\n        /* \"#utility.yul\":7126:7143   */\n      add\n        /* \"#utility.yul\":7119:7166   */\n      mstore\n        /* \"#utility.yul\":7183:7314   */\n      tag_203\n        /* \"#utility.yul\":7309:7313   */\n      dup2\n        /* \"#utility.yul\":7183:7314   */\n      tag_104\n      jump\t// in\n    tag_203:\n        /* \"#utility.yul\":7175:7314   */\n      swap1\n      pop\n        /* \"#utility.yul\":6902:7321   */\n      swap2\n      swap1\n      pop\n      jump\t// out\n        /* \"#utility.yul\":7327:7507   */\n    tag_105:\n        /* \"#utility.yul\":7375:7452   */\n      0x4e487b7100000000000000000000000000000000000000000000000000000000\n        /* \"#utility.yul\":7372:7373   */\n      0x00\n        /* \"#utility.yul\":7365:7453   */\n      mstore\n        /* \"#utility.yul\":7472:7476   */\n      0x22\n        /* \"#utility.yul\":7469:7470   */\n      0x04\n        /* \"#utility.yul\":7462:7477   */\n      mstore\n        /* \"#utility.yul\":7496:7500   */\n      0x24\n        /* \"#utility.yul\":7493:7494   */\n      0x00\n        /* \"#utility.yul\":7486:7501   */\n      revert\n        /* \"#utility.yul\":7513:7833   */\n    tag_68:\n        /* \"#utility.yul\":7557:7563   */\n      0x00\n        /* \"#utility.yul\":7594:7595   */\n      0x02\n        /* \"#utility.yul\":7588:7592   */\n      dup3\n        /* \"#utility.yul\":7584:7596   */\n      div\n        /* \"#utility.yul\":7574:7596   */\n      swap1\n      pop\n        /* \"#utility.yul\":7641:7642   */\n      0x01\n        /* \"#utility.yul\":7635:7639   */\n      dup3\n        /* \"#utility.yul\":7631:7643   */\n      and\n        /* \"#utility.yul\":7662:7680   */\n      dup1\n        /* \"#utility.yul\":7652:7733   */\n      tag_206\n      jumpi\n        /* \"#utility.yul\":7718:7722   */\n      0x7f\n        /* \"#utility.yul\":7710:7716   */\n      dup3\n        /* \"#utility.yul\":7706:7723   */\n      and\n        /* \"#utility.yul\":7696:7723   */\n      swap2\n      pop\n        /* \"#utility.yul\":7652:7733   */\n    tag_206:\n        /* \"#utility.yul\":7780:7782   */\n      0x20\n        /* \"#utility.yul\":7772:7778   */\n      dup3\n        /* \"#utility.yul\":7769:7783   */\n      lt\n        /* \"#utility.yul\":7749:7767   */\n      dup2\n        /* \"#utility.yul\":7746:7784   */\n      sub\n        /* \"#utility.yul\":7743:7827   */\n      tag_207\n      jumpi\n        /* \"#utility.yul\":7799:7817   */\n      tag_208\n      tag_105\n      jump\t// in\n    tag_208:\n        /* \"#utility.yul\":7743:7827   */\n    tag_207:\n        /* \"#utility.yul\":7564:7833   */\n      pop\n        /* \"#utility.yul\":7513:7833   */\n      swap2\n      swap1\n      pop\n      jump\t// out\n        /* \"#utility.yul\":7839:7980   */\n    tag_106:\n        /* \"#utility.yul\":7888:7892   */\n      0x00\n        /* \"#utility.yul\":7911:7914   */\n      dup2\n        /* \"#utility.yul\":7903:7914   */\n      swap1\n      pop\n        /* \"#utility.yul\":7934:7937   */\n      dup2\n        /* \"#utility.yul\":7931:7932   */\n      0x00\n        /* \"#utility.yul\":7924:7938   */\n      mstore\n        /* \"#utility.yul\":7968:7972   */\n      0x20\n        /* \"#utility.yul\":7965:7966   */\n      0x00\n        /* \"#utility.yul\":7955:7973   */\n      keccak256\n        /* \"#utility.yul\":7947:7973   */\n      swap1\n      pop\n        /* \"#utility.yul\":7839:7980   */\n      swap2\n      swap1\n      pop\n      jump\t// out\n        /* \"#utility.yul\":7986:8079   */\n    tag_107:\n        /* \"#utility.yul\":8023:8029   */\n      0x00\n        /* \"#utility.yul\":8070:8072   */\n      0x20\n        /* \"#utility.yul\":8065:8067   */\n      0x1f\n        /* \"#utility.yul\":8058:8063   */\n      dup4\n        /* \"#utility.yul\":8054:8068   */\n      add\n        /* \"#utility.yul\":8050:8073   */\n      div\n        /* \"#utility.yul\":8040:8073   */\n      swap1\n      pop\n        /* \"#utility.yul\":7986:8079   */\n      swap2\n      swap1\n      pop\n      jump\t// out\n        /* \"#utility.yul\":8085:8192   */\n    tag_108:\n        /* \"#utility.yul\":8129:8137   */\n      0x00\n        /* \"#utility.yul\":8179:8184   */\n      dup3\n        /* \"#utility.yul\":8173:8177   */\n      dup3\n        /* \"#utility.yul\":8169:8185   */\n      shl\n        /* \"#utility.yul\":8148:8185   */\n      swap1\n      pop\n        /* \"#utility.yul\":8085:8192   */\n      swap3\n      swap2\n      pop\n      pop\n      jump\t// out\n        /* \"#utility.yul\":8198:8591   */\n    tag_109:\n        /* \"#utility.yul\":8267:8273   */\n      0x00\n        /* \"#utility.yul\":8317:8318   */\n      0x08\n        /* \"#utility.yul\":8305:8315   */\n      dup4\n        /* \"#utility.yul\":8301:8319   */\n      mul\n        /* \"#utility.yul\":8340:8437   */\n      tag_213\n        /* \"#utility.yul\":8370:8436   */\n      0xffffffffffffffffffffffffffffffffffffffffffffffffffffffffffffffff\n        /* \"#utility.yul\":8359:8368   */\n      dup3\n        /* \"#utility.yul\":8340:8437   */\n      tag_108\n      jump\t// in\n    tag_213:\n        /* \"#utility.yul\":8458:8497   */\n      tag_214\n        /* \"#utility.yul\":8488:8496   */\n      dup7\n        /* \"#utility.yul\":8477:8486   */\n      dup4\n        /* \"#utility.yul\":8458:8497   */\n      tag_108\n      jump\t// in\n    tag_214:\n        /* \"#utility.yul\":8446:8497   */\n      swap6\n      pop\n        /* \"#utility.yul\":8530:8534   */\n      dup1\n        /* \"#utility.yul\":8526:8535   */\n      not\n        /* \"#utility.yul\":8519:8524   */\n      dup5\n        /* \"#utility.yul\":8515:8536   */\n      and\n        /* \"#utility.yul\":8506:8536   */\n      swap4\n      pop\n        /* \"#utility.yul\":8579:8583   */\n      dup1\n        /* \"#utility.yul\":8569:8577   */\n      dup7\n        /* \"#utility.yul\":8565:8584   */\n      and\n        /* \"#utility.yul\":8558:8563   */\n      dup5\n        /* \"#utility.yul\":8555:8585   */\n      or\n        /* \"#utility.yul\":8545:8585   */\n      swap3\n      pop\n        /* \"#utility.yul\":8274:8591   */\n      pop\n      pop\n        /* \"#utility.yul\":8198:8591   */\n      swap4\n      swap3\n      pop\n      pop\n      pop\n      jump\t// out\n        /* \"#utility.yul\":8597:8657   */\n    tag_110:\n        /* \"#utility.yul\":8625:8628   */\n      0x00\n        /* \"#utility.yul\":8646:8651   */\n      dup2\n        /* \"#utility.yul\":8639:8651   */\n      swap1\n      pop\n        /* \"#utility.yul\":8597:8657   */\n      swap2\n      swap1\n      pop\n      jump\t// out\n        /* \"#utility.yul\":8663:8805   */\n    tag_111:\n        /* \"#utility.yul\":8713:8722   */\n      0x00\n        /* \"#utility.yul\":8746:8799   */\n      tag_217\n        /* \"#utility.yul\":8764:8798   */\n      tag_218\n        /* \"#utility.yul\":8773:8797   */\n      tag_219\n        /* \"#utility.yul\":8791:8796   */\n      dup5\n        /* \"#utility.yul\":8773:8797   */\n      tag_90\n      jump\t// in\n    tag_219:\n        /* \"#utility.yul\":8764:8798   */\n      tag_110\n      jump\t// in\n    tag_218:\n        /* \"#utility.yul\":8746:8799   */\n      tag_90\n      jump\t// in\n    tag_217:\n        /* \"#utility.yul\":8733:8799   */\n      swap1\n      pop\n        /* \"#utility.yul\":8663:8805   */\n      swap2\n      swap1\n      pop\n      jump\t// out\n        /* \"#utility.yul\":8811:8886   */\n    tag_112:\n        /* \"#utility.yul\":8854:8857   */\n      0x00\n        /* \"#utility.yul\":8875:8880   */\n      dup2\n        /* \"#utility.yul\":8868:8880   */\n      swap1\n      pop\n        /* \"#utility.yul\":8811:8886   */\n      swap2\n      swap1\n      pop\n      jump\t// out\n        /* \"#utility.yul\":8892:9161   */\n    tag_113:\n        /* \"#utility.yul\":9002:9041   */\n      tag_222\n        /* \"#utility.yul\":9033:9040   */\n      dup4\n        /* \"#utility.yul\":9002:9041   */\n      tag_111\n      jump\t// in\n    tag_222:\n        /* \"#utility.yul\":9063:9154   */\n      tag_223\n        /* \"#utility.yul\":9112:9153   */\n      tag_224\n        /* \"#utility.yul\":9136:9152   */\n      dup3\n        /* \"#utility.yul\":9112:9153   */\n      tag_112\n      jump\t// in\n    tag_224:\n        /* \"#utility.yul\":9104:9110   */\n      dup5\n        /* \"#utility.yul\":9097:9101   */\n      dup5\n        /* \"#utility.yul\":9091:9102   */\n      sload\n        /* \"#utility.yul\":9063:9154   */\n      tag_109\n      jump\t// in\n    tag_223:\n        /* \"#utility.yul\":9057:9061   */\n      dup3\n        /* \"#utility.yul\":9050:9155   */\n      sstore\n        /* \"#utility.yul\":8968:9161   */\n      pop\n        /* \"#utility.yul\":8892:9161   */\n      pop\n      pop\n      pop\n      jump\t// out\n        /* \"#utility.yul\":9167:9240   */\n    tag_114:\n        /* \"#utility.yul\":9212:9215   */\n      0x00\n        /* \"#utility.yul\":9167:9240   */\n      swap1\n      jump\t// out\n        /* \"#utility.yul\":9246:9435   */\n    tag_115:\n        /* \"#utility.yul\":9323:9355   */\n      tag_227\n      tag_114\n      jump\t// in\n    tag_227:\n        /* \"#utility.yul\":9364:9429   */\n      tag_228\n        /* \"#utility.yul\":9422:9428   */\n      dup2\n        /* \"#utility.yul\":9414:9420   */\n      dup5\n        /* \"#utility.yul\":9408:9412   */\n      dup5\n        /* \"#utility.yul\":9364:9429   */\n      tag_113\n      jump\t// in\n    tag_228:\n        /* \"#utility.yul\":9299:9435   */\n      pop\n        /* \"#utility.yul\":9246:9435   */\n      pop\n      pop\n      jump\t// out\n        /* \"#utility.yul\":9441:9627   */\n    tag_116:\n        /* \"#utility.yul\":9501:9621   */\n    tag_230:\n        /* \"#utility.yul\":9518:9521   */\n      dup2\n        /* \"#utility.yul\":9511:9516   */\n      dup2\n        /* \"#utility.yul\":9508:9522   */\n      lt\n        /* \"#utility.yul\":9501:9621   */\n      iszero\n      tag_232\n      jumpi\n        /* \"#utility.yul\":9572:9611   */\n      tag_233\n        /* \"#utility.yul\":9609:9610   */\n      0x00\n        /* \"#utility.yul\":9602:9607   */\n      dup3\n        /* \"#utility.yul\":9572:9611   */\n      tag_115\n      jump\t// in\n    tag_233:\n        /* \"#utility.yul\":9545:9546   */\n      0x01\n        /* \"#utility.yul\":9538:9543   */\n      dup2\n        /* \"#utility.yul\":9534:9547   */\n      add\n        /* \"#utility.yul\":9525:9547   */\n      swap1\n      pop\n        /* \"#utility.yul\":9501:9621   */\n      jump(tag_230)\n    tag_232:\n        /* \"#utility.yul\":9441:9627   */\n      pop\n      pop\n      jump\t// out\n        /* \"#utility.yul\":9633:10176   */\n    tag_117:\n        /* \"#utility.yul\":9734:9736   */\n      0x1f\n        /* \"#utility.yul\":9729:9732   */\n      dup3\n        /* \"#utility.yul\":9726:9737   */\n      gt\n        /* \"#utility.yul\":9723:10169   */\n      iszero\n      tag_235\n      jumpi\n        /* \"#utility.yul\":9768:9806   */\n      tag_236\n        /* \"#utility.yul\":9800:9805   */\n      dup2\n        /* \"#utility.yul\":9768:9806   */\n      tag_106\n      jump\t// in\n    tag_236:\n        /* \"#utility.yul\":9852:9881   */\n      tag_237\n        /* \"#utility.yul\":9870:9880   */\n      dup5\n        /* \"#utility.yul\":9852:9881   */\n      tag_107\n      jump\t// in\n    tag_237:\n        /* \"#utility.yul\":9842:9850   */\n      dup2\n        /* \"#utility.yul\":9838:9882   */\n      add\n        /* \"#utility.yul\":10035:10037   */\n      0x20\n        /* \"#utility.yul\":10023:10033   */\n      dup6\n        /* \"#utility.yul\":10020:10038   */\n      lt\n        /* \"#utility.yul\":10017:10066   */\n      iszero\n      tag_238\n      jumpi\n        /* \"#utility.yul\":10056:10064   */\n      dup2\n        /* \"#utility.yul\":10041:10064   */\n      swap1\n      pop\n        /* \"#utility.yul\":10017:10066   */\n    tag_238:\n        /* \"#utility.yul\":10079:10159   */\n      tag_239\n        /* \"#utility.yul\":10135:10157   */\n      tag_240\n        /* \"#utility.yul\":10153:10156   */\n      dup6\n        /* \"#utility.yul\":10135:10157   */\n      tag_107\n      jump\t// in\n    tag_240:\n        /* \"#utility.yul\":10125:10133   */\n      dup4\n        /* \"#utility.yul\":10121:10158   */\n      add\n        /* \"#utility.yul\":10108:10119   */\n      dup3\n        /* \"#utility.yul\":10079:10159   */\n      tag_116\n      jump\t// in\n    tag_239:\n        /* \"#utility.yul\":9738:10169   */\n      pop\n      pop\n        /* \"#utility.yul\":9723:10169   */\n    tag_235:\n        /* \"#utility.yul\":9633:10176   */\n      pop\n      pop\n      pop\n      jump\t// out\n        /* \"#utility.yul\":10182:10299   */\n    tag_118:\n        /* \"#utility.yul\":10236:10244   */\n      0x00\n        /* \"#utility.yul\":10286:10291   */\n      dup3\n        /* \"#utility.yul\":10280:10284   */\n      dup3\n        /* \"#utility.yul\":10276:10292   */\n      shr\n        /* \"#utility.yul\":10255:10292   */\n      swap1\n      pop\n        /* \"#utility.yul\":10182:10299   */\n      swap3\n      swap2\n      pop\n      pop\n      jump\t// out\n        /* \"#utility.yul\":10305:10474   */\n    tag_119:\n        /* \"#utility.yul\":10349:10355   */\n      0x00\n        /* \"#utility.yul\":10382:10433   */\n      tag_243\n        /* \"#utility.yul\":10430:10431   */\n      0x00\n        /* \"#utility.yul\":10426:10432   */\n      not\n        /* \"#utility.yul\":10418:10423   */\n      dup5\n        /* \"#utility.yul\":10415:10416   */\n      0x08\n        /* \"#utility.yul\":10411:10424   */\n      mul\n        /* \"#utility.yul\":10382:10433   */\n      tag_118\n      jump\t// in\n    tag_243:\n        /* \"#utility.yul\":10378:10434   */\n      not\n        /* \"#utility.yul\":10463:10467   */\n      dup1\n        /* \"#utility.yul\":10457:10461   */\n      dup4\n        /* \"#utility.yul\":10453:10468   */\n      and\n        /* \"#utility.yul\":10443:10468   */\n      swap2\n      pop\n        /* \"#utility.yul\":10356:10474   */\n      pop\n        /* \"#utility.yul\":10305:10474   */\n      swap3\n      swap2\n      pop\n      pop\n      jump\t// out\n        /* \"#utility.yul\":10479:10774   */\n    tag_120:\n        /* \"#utility.yul\":10555:10559   */\n      0x00\n        /* \"#utility.yul\":10701:10730   */\n      tag_245\n        /* \"#utility.yul\":10726:10729   */\n      dup4\n        /* \"#utility.yul\":10720:10724   */\n      dup4\n        /* \"#utility.yul\":10701:10730   */\n      tag_119\n      jump\t// in\n    tag_245:\n        /* \"#utility.yul\":10693:10730   */\n      swap2\n      pop\n        /* \"#utility.yul\":10763:10766   */\n      dup3\n        /* \"#utility.yul\":10760:10761   */\n      0x02\n        /* \"#utility.yul\":10756:10767   */\n      mul\n        /* \"#utility.yul\":10750:10754   */\n      dup3\n        /* \"#utility.yul\":10747:10768   */\n      or\n        /* \"#utility.yul\":10739:10768   */\n      swap1\n      pop\n        /* \"#utility.yul\":10479:10774   */\n      swap3\n      swap2\n      pop\n      pop\n      jump\t// out\n        /* \"#utility.yul\":10779:12174   */\n    tag_61:\n        /* \"#utility.yul\":10896:10933   */\n      tag_247\n        /* \"#utility.yul\":10929:10932   */\n      dup3\n        /* \"#utility.yul\":10896:10933   */\n      tag_97\n      jump\t// in\n    tag_247:\n        /* \"#utility.yul\":10998:11016   */\n      0xffffffffffffffff\n        /* \"#utility.yul\":10990:10996   */\n      dup2\n        /* \"#utility.yul\":10987:11017   */\n      gt\n        /* \"#utility.yul\":10984:11040   */\n      iszero\n      tag_248\n      jumpi\n        /* \"#utility.yul\":11020:11038   */\n      tag_249\n      tag_83\n      jump\t// in\n    tag_249:\n        /* \"#utility.yul\":10984:11040   */\n    tag_248:\n        /* \"#utility.yul\":11064:11102   */\n      tag_250\n        /* \"#utility.yul\":11096:11100   */\n      dup3\n        /* \"#utility.yul\":11090:11101   */\n      sload\n        /* \"#utility.yul\":11064:11102   */\n      tag_68\n      jump\t// in\n    tag_250:\n        /* \"#utility.yul\":11149:11216   */\n      tag_251\n        /* \"#utility.yul\":11209:11215   */\n      dup3\n        /* \"#utility.yul\":11201:11207   */\n      dup3\n        /* \"#utility.yul\":11195:11199   */\n      dup6\n        /* \"#utility.yul\":11149:11216   */\n      tag_117\n      jump\t// in\n    tag_251:\n        /* \"#utility.yul\":11243:11244   */\n      0x00\n        /* \"#utility.yul\":11267:11271   */\n      0x20\n        /* \"#utility.yul\":11254:11271   */\n      swap1\n      pop\n        /* \"#utility.yul\":11299:11301   */\n      0x1f\n        /* \"#utility.yul\":11291:11297   */\n      dup4\n        /* \"#utility.yul\":11288:11302   */\n      gt\n        /* \"#utility.yul\":11316:11317   */\n      0x01\n        /* \"#utility.yul\":11311:11929   */\n      dup2\n      eq\n      tag_253\n      jumpi\n        /* \"#utility.yul\":11973:11974   */\n      0x00\n        /* \"#utility.yul\":11990:11996   */\n      dup5\n        /* \"#utility.yul\":11987:12064   */\n      iszero\n      tag_254\n      jumpi\n        /* \"#utility.yul\":12039:12048   */\n      dup3\n        /* \"#utility.yul\":12034:12037   */\n      dup8\n        /* \"#utility.yul\":12030:12049   */\n      add\n        /* \"#utility.yul\":12024:12050   */\n      mload\n        /* \"#utility.yul\":12015:12050   */\n      swap1\n      pop\n        /* \"#utility.yul\":11987:12064   */\n    tag_254:\n        /* \"#utility.yul\":12090:12157   */\n      tag_255\n        /* \"#utility.yul\":12150:12156   */\n      dup6\n        /* \"#utility.yul\":12143:12148   */\n      dup3\n        /* \"#utility.yul\":12090:12157   */\n      tag_120\n      jump\t// in\n    tag_255:\n        /* \"#utility.yul\":12084:12088   */\n      dup7\n        /* \"#utility.yul\":12077:12158   */\n      sstore\n        /* \"#utility.yul\":11946:12168   */\n      pop\n        /* \"#utility.yul\":11281:12168   */\n      jump(tag_252)\n        /* \"#utility.yul\":11311:11929   */\n    tag_253:\n        /* \"#utility.yul\":11363:11367   */\n      0x1f\n        /* \"#utility.yul\":11359:11368   */\n      not\n        /* \"#utility.yul\":11351:11357   */\n      dup5\n        /* \"#utility.yul\":11347:11369   */\n      and\n        /* \"#utility.yul\":11397:11434   */\n      tag_256\n        /* \"#utility.yul\":11429:11433   */\n      dup7\n        /* \"#utility.yul\":11397:11434   */\n      tag_106\n      jump\t// in\n    tag_256:\n        /* \"#utility.yul\":11456:11457   */\n      0x00\n        /* \"#utility.yul\":11470:11678   */\n    tag_257:\n        /* \"#utility.yul\":11484:11491   */\n      dup3\n        /* \"#utility.yul\":11481:11482   */\n      dup2\n        /* \"#utility.yul\":11478:11492   */\n      lt\n        /* \"#utility.yul\":11470:11678   */\n      iszero\n      tag_259\n      jumpi\n        /* \"#utility.yul\":11563:11572   */\n      dup5\n        /* \"#utility.yul\":11558:11561   */\n      dup10\n        /* \"#utility.yul\":11554:11573   */\n      add\n        /* \"#utility.yul\":11548:11574   */\n      mload\n        /* \"#utility.yul\":11540:11546   */\n      dup3\n        /* \"#utility.yul\":11533:11575   */\n      sstore\n        /* \"#utility.yul\":11614:11615   */\n      0x01\n        /* \"#utility.yul\":11606:11612   */\n      dup3\n        /* \"#utility.yul\":11602:11616   */\n      add\n        /* \"#utility.yul\":11592:11616   */\n      swap2\n      pop\n        /* \"#utility.yul\":11661:11663   */\n      0x20\n        /* \"#utility.yul\":11650:11659   */\n      dup6\n        /* \"#utility.yul\":11646:11664   */\n      add\n        /* \"#utility.yul\":11633:11664   */\n      swap5\n      pop\n        /* \"#utility.yul\":11507:11511   */\n      0x20\n        /* \"#utility.yul\":11504:11505   */\n      dup2\n        /* \"#utility.yul\":11500:11512   */\n      add\n        /* \"#utility.yul\":11495:11512   */\n      swap1\n      pop\n        /* \"#utility.yul\":11470:11678   */\n      jump(tag_257)\n    tag_259:\n        /* \"#utility.yul\":11706:11712   */\n      dup7\n        /* \"#utility.yul\":11697:11704   */\n      dup4\n        /* \"#utility.yul\":11694:11713   */\n      lt\n        /* \"#utility.yul\":11691:11870   */\n      iszero\n      tag_260\n      jumpi\n        /* \"#utility.yul\":11764:11773   */\n      dup5\n        /* \"#utility.yul\":11759:11762   */\n      dup10\n        /* \"#utility.yul\":11755:11774   */\n      add\n        /* \"#utility.yul\":11749:11775   */\n      mload\n        /* \"#utility.yul\":11807:11855   */\n      tag_261\n        /* \"#utility.yul\":11849:11853   */\n      0x1f\n        /* \"#utility.yul\":11841:11847   */\n      dup10\n        /* \"#utility.yul\":11837:11854   */\n      and\n        /* \"#utility.yul\":11826:11835   */\n      dup3\n        /* \"#utility.yul\":11807:11855   */\n      tag_119\n      jump\t// in\n    tag_261:\n        /* \"#utility.yul\":11799:11805   */\n      dup4\n        /* \"#utility.yul\":11792:11856   */\n      sstore\n        /* \"#utility.yul\":11714:11870   */\n      pop\n        /* \"#utility.yul\":11691:11870   */\n    tag_260:\n        /* \"#utility.yul\":11916:11917   */\n      0x01\n        /* \"#utility.yul\":11912:11913   */\n      0x02\n        /* \"#utility.yul\":11904:11910   */\n      dup9\n        /* \"#utility.yul\":11900:11914   */\n      mul\n        /* \"#utility.yul\":11896:11918   */\n      add\n        /* \"#utility.yul\":11890:11894   */\n      dup9\n        /* \"#utility.yul\":11883:11919   */\n      sstore\n        /* \"#utility.yul\":11318:11929   */\n      pop\n      pop\n      pop\n        /* \"#utility.yul\":11281:12168   */\n    tag_252:\n      pop\n        /* \"#utility.yul\":10871:12174   */\n      pop\n      pop\n      pop\n        /* \"#utility.yul\":10779:12174   */\n      pop\n      pop\n      jump\t// out\n        /* \"#utility.yul\":12180:12354   */\n    tag_121:\n        /* \"#utility.yul\":12320:12346   */\n      0x4c6120616c63616e636961206573746120636572726164610000000000000000\n        /* \"#utility.yul\":12316:12317   */\n      0x00\n        /* \"#utility.yul\":12308:12314   */\n      dup3\n        /* \"#utility.yul\":12304:12318   */\n      add\n        /* \"#utility.yul\":12297:12347   */\n      mstore\n        /* \"#utility.yul\":12180:12354   */\n      pop\n      jump\t// out\n        /* \"#utility.yul\":12360:12726   */\n    tag_122:\n        /* \"#utility.yul\":12502:12505   */\n      0x00\n        /* \"#utility.yul\":12523:12590   */\n      tag_264\n        /* \"#utility.yul\":12587:12589   */\n      0x18\n        /* \"#utility.yul\":12582:12585   */\n      dup4\n        /* \"#utility.yul\":12523:12590   */\n      tag_98\n      jump\t// in\n    tag_264:\n        /* \"#utility.yul\":12516:12590   */\n      swap2\n      pop\n        /* \"#utility.yul\":12599:12692   */\n      tag_265\n        /* \"#utility.yul\":12688:12691   */\n      dup3\n        /* \"#utility.yul\":12599:12692   */\n      tag_121\n      jump\t// in\n    tag_265:\n        /* \"#utility.yul\":12717:12719   */\n      0x20\n        /* \"#utility.yul\":12712:12715   */\n      dup3\n        /* \"#utility.yul\":12708:12720   */\n      add\n        /* \"#utility.yul\":12701:12720   */\n      swap1\n      pop\n        /* \"#utility.yul\":12360:12726   */\n      swap2\n      swap1\n      pop\n      jump\t// out\n        /* \"#utility.yul\":12732:13151   */\n    tag_66:\n        /* \"#utility.yul\":12898:12902   */\n      0x00\n        /* \"#utility.yul\":12936:12938   */\n      0x20\n        /* \"#utility.yul\":12925:12934   */\n      dup3\n        /* \"#utility.yul\":12921:12939   */\n      add\n        /* \"#utility.yul\":12913:12939   */\n      swap1\n      pop\n        /* \"#utility.yul\":12985:12994   */\n      dup2\n        /* \"#utility.yul\":12979:12983   */\n      dup2\n        /* \"#utility.yul\":12975:12995   */\n      sub\n        /* \"#utility.yul\":12971:12972   */\n      0x00\n        /* \"#utility.yul\":12960:12969   */\n      dup4\n        /* \"#utility.yul\":12956:12973   */\n      add\n        /* \"#utility.yul\":12949:12996   */\n      mstore\n        /* \"#utility.yul\":13013:13144   */\n      tag_267\n        /* \"#utility.yul\":13139:13143   */\n      dup2\n        /* \"#utility.yul\":13013:13144   */\n      tag_122\n      jump\t// in\n    tag_267:\n        /* \"#utility.yul\":13005:13144   */\n      swap1\n      pop\n        /* \"#utility.yul\":12732:13151   */\n      swap2\n      swap1\n      pop\n      jump\t// out\n\n    auxdata: 0xa2646970667358221220c97892a9269f1866f3ddd644f300d3ef22d4871fa64c41d9c7406edf2e0b0ae164736f6c63430008140033\n}\n",
				"bytecode": {
					"linkReferences": {},
					"object": "608060405234801562000010575f80fd5b50604051620011d6380380620011d683398181016040528101906200003691906200026d565b335f806101000a81548173ffffffffffffffffffffffffffffffffffffffff021916908373ffffffffffffffffffffffffffffffffffffffff1602179055508160029081620000869190620004ff565b5080600181905550600160035f6101000a81548160ff0219169083151502179055505050620005e3565b5f604051905090565b5f80fd5b5f80fd5b5f80fd5b5f80fd5b5f601f19601f8301169050919050565b7f4e487b71000000000000000000000000000000000000000000000000000000005f52604160045260245ffd5b6200011182620000c9565b810181811067ffffffffffffffff82111715620001335762000132620000d9565b5b80604052505050565b5f62000147620000b0565b905062000155828262000106565b919050565b5f67ffffffffffffffff821115620001775762000176620000d9565b5b6200018282620000c9565b9050602081019050919050565b5f5b83811015620001ae57808201518184015260208101905062000191565b5f8484015250505050565b5f620001cf620001c9846200015a565b6200013c565b905082815260208101848484011115620001ee57620001ed620000c5565b5b620001fb8482856200018f565b509392505050565b5f82601f8301126200021a5762000219620000c1565b5b81516200022c848260208601620001b9565b91505092915050565b5f819050919050565b620002498162000235565b811462000254575f80fd5b50565b5f8151905062000267816200023e565b92915050565b5f8060408385031215620002865762000285620000b9565b5b5f83015167ffffffffffffffff811115620002a657620002a5620000bd565b5b620002b48582860162000203565b9250506020620002c78582860162000257565b9150509250929050565b5f81519050919050565b7f4e487b71000000000000000000000000000000000000000000000000000000005f52602260045260245ffd5b5f60028204905060018216806200032057607f821691505b602082108103620003365762000335620002db565b5b50919050565b5f819050815f5260205f209050919050565b5f6020601f8301049050919050565b5f82821b905092915050565b5f600883026200039a7fffffffffffffffffffffffffffffffffffffffffffffffffffffffffffffffff826200035d565b620003a686836200035d565b95508019841693508086168417925050509392505050565b5f819050919050565b5f620003e7620003e1620003db8462000235565b620003be565b62000235565b9050919050565b5f819050919050565b6200040283620003c7565b6200041a6200041182620003ee565b84845462000369565b825550505050565b5f90565b6200043062000422565b6200043d818484620003f7565b505050565b5b818110156200046457620004585f8262000426565b60018101905062000443565b5050565b601f821115620004b3576200047d816200033c565b62000488846200034e565b8101602085101562000498578190505b620004b0620004a7856200034e565b83018262000442565b50505b505050565b5f82821c905092915050565b5f620004d55f1984600802620004b8565b1980831691505092915050565b5f620004ef8383620004c4565b9150826002028217905092915050565b6200050a82620002d1565b67ffffffffffffffff811115620005265762000525620000d9565b5b62000532825462000308565b6200053f82828562000468565b5f60209050601f83116001811462000575575f841562000560578287015190505b6200056c8582620004e2565b865550620005db565b601f19841662000585866200033c565b5f5b82811015620005ae5784890151825560018201915060208501945060208101905062000587565b86831015620005ce5784890151620005ca601f891682620004c4565b8355505b6001600288020188555050505b505050505050565b610be580620005f15f395ff3fe608060405260043610610085575f3560e01c80633ec47542116100585780633ec475421461011b57806378340e57146101255780638da5cb5b1461014f578063aba46a5f14610179578063bc167263146101a357610085565b806306a3e4e6146100895780631dd456061461009f57806322d9a1ee146100c7578063305954b6146100f1575b5f80fd5b348015610094575f80fd5b5061009d6101cb565b005b3480156100aa575f80fd5b506100c560048036038101906100c09190610624565b610282565b005b3480156100d2575f80fd5b506100db610322565b6040516100e89190610683565b60405180910390f35b3480156100fc575f80fd5b50610105610329565b60405161011291906106b6565b60405180910390f35b61012361033b565b005b348015610130575f80fd5b5061013961038b565b6040516101469190610683565b60405180910390f35b34801561015a575f80fd5b50610163610391565b604051610170919061070e565b60405180910390f35b348015610184575f80fd5b5061018d6103b4565b60405161019a91906107a1565b60405180910390f35b3480156101ae575f80fd5b506101c960048036038101906101c491906107eb565b610440565b005b5f8054906101000a900473ffffffffffffffffffffffffffffffffffffffff1673ffffffffffffffffffffffffffffffffffffffff163373ffffffffffffffffffffffffffffffffffffffff1614610258576040517f08c379a000000000000000000000000000000000000000000000000000000000815260040161024f90610860565b60405180910390fd5b60035f9054906101000a900460ff161560035f6101000a81548160ff021916908315150217905550565b5f8054906101000a900473ffffffffffffffffffffffffffffffffffffffff1673ffffffffffffffffffffffffffffffffffffffff163373ffffffffffffffffffffffffffffffffffffffff161461030f576040517f08c379a000000000000000000000000000000000000000000000000000000000815260040161030690610860565b60405180910390fd5b806002908161031e9190610a78565b5050565b5f47905090565b60035f9054906101000a900460ff1681565b60035f9054906101000a900460ff16610389576040517f08c379a000000000000000000000000000000000000000000000000000000000815260040161038090610b91565b60405180910390fd5b565b60015481565b5f8054906101000a900473ffffffffffffffffffffffffffffffffffffffff1681565b600280546103c1906108ab565b80601f01602080910402602001604051908101604052809291908181526020018280546103ed906108ab565b80156104385780601f1061040f57610100808354040283529160200191610438565b820191905f5260205f20905b81548152906001019060200180831161041b57829003601f168201915b505050505081565b5f8054906101000a900473ffffffffffffffffffffffffffffffffffffffff1673ffffffffffffffffffffffffffffffffffffffff163373ffffffffffffffffffffffffffffffffffffffff16146104cd576040517f08c379a00000000000000000000000000000000000000000000000000000000081526004016104c490610860565b60405180910390fd5b8060018190555050565b5f604051905090565b5f80fd5b5f80fd5b5f80fd5b5f80fd5b5f601f19601f8301169050919050565b7f4e487b71000000000000000000000000000000000000000000000000000000005f52604160045260245ffd5b610536826104f0565b810181811067ffffffffffffffff8211171561055557610554610500565b5b80604052505050565b5f6105676104d7565b9050610573828261052d565b919050565b5f67ffffffffffffffff82111561059257610591610500565b5b61059b826104f0565b9050602081019050919050565b828183375f83830152505050565b5f6105c86105c384610578565b61055e565b9050828152602081018484840111156105e4576105e36104ec565b5b6105ef8482856105a8565b509392505050565b5f82601f83011261060b5761060a6104e8565b5b813561061b8482602086016105b6565b91505092915050565b5f60208284031215610639576106386104e0565b5b5f82013567ffffffffffffffff811115610656576106556104e4565b5b610662848285016105f7565b91505092915050565b5f819050919050565b61067d8161066b565b82525050565b5f6020820190506106965f830184610674565b92915050565b5f8115159050919050565b6106b08161069c565b82525050565b5f6020820190506106c95f8301846106a7565b92915050565b5f73ffffffffffffffffffffffffffffffffffffffff82169050919050565b5f6106f8826106cf565b9050919050565b610708816106ee565b82525050565b5f6020820190506107215f8301846106ff565b92915050565b5f81519050919050565b5f82825260208201905092915050565b5f5b8381101561075e578082015181840152602081019050610743565b5f8484015250505050565b5f61077382610727565b61077d8185610731565b935061078d818560208601610741565b610796816104f0565b840191505092915050565b5f6020820190508181035f8301526107b98184610769565b905092915050565b6107ca8161066b565b81146107d4575f80fd5b50565b5f813590506107e5816107c1565b92915050565b5f60208284031215610800576107ff6104e0565b5b5f61080d848285016107d7565b91505092915050565b7f4e6f206572657320656c206475656e6f000000000000000000000000000000005f82015250565b5f61084a601083610731565b915061085582610816565b602082019050919050565b5f6020820190508181035f8301526108778161083e565b9050919050565b7f4e487b71000000000000000000000000000000000000000000000000000000005f52602260045260245ffd5b5f60028204905060018216806108c257607f821691505b6020821081036108d5576108d461087e565b5b50919050565b5f819050815f5260205f209050919050565b5f6020601f8301049050919050565b5f82821b905092915050565b5f600883026109377fffffffffffffffffffffffffffffffffffffffffffffffffffffffffffffffff826108fc565b61094186836108fc565b95508019841693508086168417925050509392505050565b5f819050919050565b5f61097c6109776109728461066b565b610959565b61066b565b9050919050565b5f819050919050565b61099583610962565b6109a96109a182610983565b848454610908565b825550505050565b5f90565b6109bd6109b1565b6109c881848461098c565b505050565b5b818110156109eb576109e05f826109b5565b6001810190506109ce565b5050565b601f821115610a3057610a01816108db565b610a0a846108ed565b81016020851015610a19578190505b610a2d610a25856108ed565b8301826109cd565b50505b505050565b5f82821c905092915050565b5f610a505f1984600802610a35565b1980831691505092915050565b5f610a688383610a41565b9150826002028217905092915050565b610a8182610727565b67ffffffffffffffff811115610a9a57610a99610500565b5b610aa482546108ab565b610aaf8282856109ef565b5f60209050601f831160018114610ae0575f8415610ace578287015190505b610ad88582610a5d565b865550610b3f565b601f198416610aee866108db565b5f5b82811015610b1557848901518255600182019150602085019450602081019050610af0565b86831015610b325784890151610b2e601f891682610a41565b8355505b6001600288020188555050505b505050505050565b7f4c6120616c63616e6369612065737461206365727261646100000000000000005f82015250565b5f610b7b601883610731565b9150610b8682610b47565b602082019050919050565b5f6020820190508181035f830152610ba881610b6f565b905091905056fea2646970667358221220c97892a9269f1866f3ddd644f300d3ef22d4871fa64c41d9c7406edf2e0b0ae164736f6c63430008140033",
					"opcodes": "PUSH1 0x80 PUSH1 0x40 MSTORE CALLVALUE DUP1 ISZERO PUSH3 0x10 JUMPI PUSH0 DUP1 REVERT JUMPDEST POP PUSH1 0x40 MLOAD PUSH3 0x11D6 CODESIZE SUB DUP1 PUSH3 0x11D6 DUP4 CODECOPY DUP2 DUP2 ADD PUSH1 0x40 MSTORE DUP2 ADD SWAP1 PUSH3 0x36 SWAP2 SWAP1 PUSH3 0x26D JUMP JUMPDEST CALLER PUSH0 DUP1 PUSH2 0x100 EXP DUP2 SLOAD DUP2 PUSH20 0xFFFFFFFFFFFFFFFFFFFFFFFFFFFFFFFFFFFFFFFF MUL NOT AND SWAP1 DUP4 PUSH20 0xFFFFFFFFFFFFFFFFFFFFFFFFFFFFFFFFFFFFFFFF AND MUL OR SWAP1 SSTORE POP DUP2 PUSH1 0x2 SWAP1 DUP2 PUSH3 0x86 SWAP2 SWAP1 PUSH3 0x4FF JUMP JUMPDEST POP DUP1 PUSH1 0x1 DUP2 SWAP1 SSTORE POP PUSH1 0x1 PUSH1 0x3 PUSH0 PUSH2 0x100 EXP DUP2 SLOAD DUP2 PUSH1 0xFF MUL NOT AND SWAP1 DUP4 ISZERO ISZERO MUL OR SWAP1 SSTORE POP POP POP PUSH3 0x5E3 JUMP JUMPDEST PUSH0 PUSH1 0x40 MLOAD SWAP1 POP SWAP1 JUMP JUMPDEST PUSH0 DUP1 REVERT JUMPDEST PUSH0 DUP1 REVERT JUMPDEST PUSH0 DUP1 REVERT JUMPDEST PUSH0 DUP1 REVERT JUMPDEST PUSH0 PUSH1 0x1F NOT PUSH1 0x1F DUP4 ADD AND SWAP1 POP SWAP2 SWAP1 POP JUMP JUMPDEST PUSH32 0x4E487B7100000000000000000000000000000000000000000000000000000000 PUSH0 MSTORE PUSH1 0x41 PUSH1 0x4 MSTORE PUSH1 0x24 PUSH0 REVERT JUMPDEST PUSH3 0x111 DUP3 PUSH3 0xC9 JUMP JUMPDEST DUP2 ADD DUP2 DUP2 LT PUSH8 0xFFFFFFFFFFFFFFFF DUP3 GT OR ISZERO PUSH3 0x133 JUMPI PUSH3 0x132 PUSH3 0xD9 JUMP JUMPDEST JUMPDEST DUP1 PUSH1 0x40 MSTORE POP POP POP JUMP JUMPDEST PUSH0 PUSH3 0x147 PUSH3 0xB0 JUMP JUMPDEST SWAP1 POP PUSH3 0x155 DUP3 DUP3 PUSH3 0x106 JUMP JUMPDEST SWAP2 SWAP1 POP JUMP JUMPDEST PUSH0 PUSH8 0xFFFFFFFFFFFFFFFF DUP3 GT ISZERO PUSH3 0x177 JUMPI PUSH3 0x176 PUSH3 0xD9 JUMP JUMPDEST JUMPDEST PUSH3 0x182 DUP3 PUSH3 0xC9 JUMP JUMPDEST SWAP1 POP PUSH1 0x20 DUP2 ADD SWAP1 POP SWAP2 SWAP1 POP JUMP JUMPDEST PUSH0 JUMPDEST DUP4 DUP2 LT ISZERO PUSH3 0x1AE JUMPI DUP1 DUP3 ADD MLOAD DUP2 DUP5 ADD MSTORE PUSH1 0x20 DUP2 ADD SWAP1 POP PUSH3 0x191 JUMP JUMPDEST PUSH0 DUP5 DUP5 ADD MSTORE POP POP POP POP JUMP JUMPDEST PUSH0 PUSH3 0x1CF PUSH3 0x1C9 DUP5 PUSH3 0x15A JUMP JUMPDEST PUSH3 0x13C JUMP JUMPDEST SWAP1 POP DUP3 DUP2 MSTORE PUSH1 0x20 DUP2 ADD DUP5 DUP5 DUP5 ADD GT ISZERO PUSH3 0x1EE JUMPI PUSH3 0x1ED PUSH3 0xC5 JUMP JUMPDEST JUMPDEST PUSH3 0x1FB DUP5 DUP3 DUP6 PUSH3 0x18F JUMP JUMPDEST POP SWAP4 SWAP3 POP POP POP JUMP JUMPDEST PUSH0 DUP3 PUSH1 0x1F DUP4 ADD SLT PUSH3 0x21A JUMPI PUSH3 0x219 PUSH3 0xC1 JUMP JUMPDEST JUMPDEST DUP2 MLOAD PUSH3 0x22C DUP5 DUP3 PUSH1 0x20 DUP7 ADD PUSH3 0x1B9 JUMP JUMPDEST SWAP2 POP POP SWAP3 SWAP2 POP POP JUMP JUMPDEST PUSH0 DUP2 SWAP1 POP SWAP2 SWAP1 POP JUMP JUMPDEST PUSH3 0x249 DUP2 PUSH3 0x235 JUMP JUMPDEST DUP2 EQ PUSH3 0x254 JUMPI PUSH0 DUP1 REVERT JUMPDEST POP JUMP JUMPDEST PUSH0 DUP2 MLOAD SWAP1 POP PUSH3 0x267 DUP2 PUSH3 0x23E JUMP JUMPDEST SWAP3 SWAP2 POP POP JUMP JUMPDEST PUSH0 DUP1 PUSH1 0x40 DUP4 DUP6 SUB SLT ISZERO PUSH3 0x286 JUMPI PUSH3 0x285 PUSH3 0xB9 JUMP JUMPDEST JUMPDEST PUSH0 DUP4 ADD MLOAD PUSH8 0xFFFFFFFFFFFFFFFF DUP2 GT ISZERO PUSH3 0x2A6 JUMPI PUSH3 0x2A5 PUSH3 0xBD JUMP JUMPDEST JUMPDEST PUSH3 0x2B4 DUP6 DUP3 DUP7 ADD PUSH3 0x203 JUMP JUMPDEST SWAP3 POP POP PUSH1 0x20 PUSH3 0x2C7 DUP6 DUP3 DUP7 ADD PUSH3 0x257 JUMP JUMPDEST SWAP2 POP POP SWAP3 POP SWAP3 SWAP1 POP JUMP JUMPDEST PUSH0 DUP2 MLOAD SWAP1 POP SWAP2 SWAP1 POP JUMP JUMPDEST PUSH32 0x4E487B7100000000000000000000000000000000000000000000000000000000 PUSH0 MSTORE PUSH1 0x22 PUSH1 0x4 MSTORE PUSH1 0x24 PUSH0 REVERT JUMPDEST PUSH0 PUSH1 0x2 DUP3 DIV SWAP1 POP PUSH1 0x1 DUP3 AND DUP1 PUSH3 0x320 JUMPI PUSH1 0x7F DUP3 AND SWAP2 POP JUMPDEST PUSH1 0x20 DUP3 LT DUP2 SUB PUSH3 0x336 JUMPI PUSH3 0x335 PUSH3 0x2DB JUMP JUMPDEST JUMPDEST POP SWAP2 SWAP1 POP JUMP JUMPDEST PUSH0 DUP2 SWAP1 POP DUP2 PUSH0 MSTORE PUSH1 0x20 PUSH0 KECCAK256 SWAP1 POP SWAP2 SWAP1 POP JUMP JUMPDEST PUSH0 PUSH1 0x20 PUSH1 0x1F DUP4 ADD DIV SWAP1 POP SWAP2 SWAP1 POP JUMP JUMPDEST PUSH0 DUP3 DUP3 SHL SWAP1 POP SWAP3 SWAP2 POP POP JUMP JUMPDEST PUSH0 PUSH1 0x8 DUP4 MUL PUSH3 0x39A PUSH32 0xFFFFFFFFFFFFFFFFFFFFFFFFFFFFFFFFFFFFFFFFFFFFFFFFFFFFFFFFFFFFFFFF DUP3 PUSH3 0x35D JUMP JUMPDEST PUSH3 0x3A6 DUP7 DUP4 PUSH3 0x35D JUMP JUMPDEST SWAP6 POP DUP1 NOT DUP5 AND SWAP4 POP DUP1 DUP7 AND DUP5 OR SWAP3 POP POP POP SWAP4 SWAP3 POP POP POP JUMP JUMPDEST PUSH0 DUP2 SWAP1 POP SWAP2 SWAP1 POP JUMP JUMPDEST PUSH0 PUSH3 0x3E7 PUSH3 0x3E1 PUSH3 0x3DB DUP5 PUSH3 0x235 JUMP JUMPDEST PUSH3 0x3BE JUMP JUMPDEST PUSH3 0x235 JUMP JUMPDEST SWAP1 POP SWAP2 SWAP1 POP JUMP JUMPDEST PUSH0 DUP2 SWAP1 POP SWAP2 SWAP1 POP JUMP JUMPDEST PUSH3 0x402 DUP4 PUSH3 0x3C7 JUMP JUMPDEST PUSH3 0x41A PUSH3 0x411 DUP3 PUSH3 0x3EE JUMP JUMPDEST DUP5 DUP5 SLOAD PUSH3 0x369 JUMP JUMPDEST DUP3 SSTORE POP POP POP POP JUMP JUMPDEST PUSH0 SWAP1 JUMP JUMPDEST PUSH3 0x430 PUSH3 0x422 JUMP JUMPDEST PUSH3 0x43D DUP2 DUP5 DUP5 PUSH3 0x3F7 JUMP JUMPDEST POP POP POP JUMP JUMPDEST JUMPDEST DUP2 DUP2 LT ISZERO PUSH3 0x464 JUMPI PUSH3 0x458 PUSH0 DUP3 PUSH3 0x426 JUMP JUMPDEST PUSH1 0x1 DUP2 ADD SWAP1 POP PUSH3 0x443 JUMP JUMPDEST POP POP JUMP JUMPDEST PUSH1 0x1F DUP3 GT ISZERO PUSH3 0x4B3 JUMPI PUSH3 0x47D DUP2 PUSH3 0x33C JUMP JUMPDEST PUSH3 0x488 DUP5 PUSH3 0x34E JUMP JUMPDEST DUP2 ADD PUSH1 0x20 DUP6 LT ISZERO PUSH3 0x498 JUMPI DUP2 SWAP1 POP JUMPDEST PUSH3 0x4B0 PUSH3 0x4A7 DUP6 PUSH3 0x34E JUMP JUMPDEST DUP4 ADD DUP3 PUSH3 0x442 JUMP JUMPDEST POP POP JUMPDEST POP POP POP JUMP JUMPDEST PUSH0 DUP3 DUP3 SHR SWAP1 POP SWAP3 SWAP2 POP POP JUMP JUMPDEST PUSH0 PUSH3 0x4D5 PUSH0 NOT DUP5 PUSH1 0x8 MUL PUSH3 0x4B8 JUMP JUMPDEST NOT DUP1 DUP4 AND SWAP2 POP POP SWAP3 SWAP2 POP POP JUMP JUMPDEST PUSH0 PUSH3 0x4EF DUP4 DUP4 PUSH3 0x4C4 JUMP JUMPDEST SWAP2 POP DUP3 PUSH1 0x2 MUL DUP3 OR SWAP1 POP SWAP3 SWAP2 POP POP JUMP JUMPDEST PUSH3 0x50A DUP3 PUSH3 0x2D1 JUMP JUMPDEST PUSH8 0xFFFFFFFFFFFFFFFF DUP2 GT ISZERO PUSH3 0x526 JUMPI PUSH3 0x525 PUSH3 0xD9 JUMP JUMPDEST JUMPDEST PUSH3 0x532 DUP3 SLOAD PUSH3 0x308 JUMP JUMPDEST PUSH3 0x53F DUP3 DUP3 DUP6 PUSH3 0x468 JUMP JUMPDEST PUSH0 PUSH1 0x20 SWAP1 POP PUSH1 0x1F DUP4 GT PUSH1 0x1 DUP2 EQ PUSH3 0x575 JUMPI PUSH0 DUP5 ISZERO PUSH3 0x560 JUMPI DUP3 DUP8 ADD MLOAD SWAP1 POP JUMPDEST PUSH3 0x56C DUP6 DUP3 PUSH3 0x4E2 JUMP JUMPDEST DUP7 SSTORE POP PUSH3 0x5DB JUMP JUMPDEST PUSH1 0x1F NOT DUP5 AND PUSH3 0x585 DUP7 PUSH3 0x33C JUMP JUMPDEST PUSH0 JUMPDEST DUP3 DUP2 LT ISZERO PUSH3 0x5AE JUMPI DUP5 DUP10 ADD MLOAD DUP3 SSTORE PUSH1 0x1 DUP3 ADD SWAP2 POP PUSH1 0x20 DUP6 ADD SWAP5 POP PUSH1 0x20 DUP2 ADD SWAP1 POP PUSH3 0x587 JUMP JUMPDEST DUP7 DUP4 LT ISZERO PUSH3 0x5CE JUMPI DUP5 DUP10 ADD MLOAD PUSH3 0x5CA PUSH1 0x1F DUP10 AND DUP3 PUSH3 0x4C4 JUMP JUMPDEST DUP4 SSTORE POP JUMPDEST PUSH1 0x1 PUSH1 0x2 DUP9 MUL ADD DUP9 SSTORE POP POP POP JUMPDEST POP POP POP POP POP POP JUMP JUMPDEST PUSH2 0xBE5 DUP1 PUSH3 0x5F1 PUSH0 CODECOPY PUSH0 RETURN INVALID PUSH1 0x80 PUSH1 0x40 MSTORE PUSH1 0x4 CALLDATASIZE LT PUSH2 0x85 JUMPI PUSH0 CALLDATALOAD PUSH1 0xE0 SHR DUP1 PUSH4 0x3EC47542 GT PUSH2 0x58 JUMPI DUP1 PUSH4 0x3EC47542 EQ PUSH2 0x11B JUMPI DUP1 PUSH4 0x78340E57 EQ PUSH2 0x125 JUMPI DUP1 PUSH4 0x8DA5CB5B EQ PUSH2 0x14F JUMPI DUP1 PUSH4 0xABA46A5F EQ PUSH2 0x179 JUMPI DUP1 PUSH4 0xBC167263 EQ PUSH2 0x1A3 JUMPI PUSH2 0x85 JUMP JUMPDEST DUP1 PUSH4 0x6A3E4E6 EQ PUSH2 0x89 JUMPI DUP1 PUSH4 0x1DD45606 EQ PUSH2 0x9F JUMPI DUP1 PUSH4 0x22D9A1EE EQ PUSH2 0xC7 JUMPI DUP1 PUSH4 0x305954B6 EQ PUSH2 0xF1 JUMPI JUMPDEST PUSH0 DUP1 REVERT JUMPDEST CALLVALUE DUP1 ISZERO PUSH2 0x94 JUMPI PUSH0 DUP1 REVERT JUMPDEST POP PUSH2 0x9D PUSH2 0x1CB JUMP JUMPDEST STOP JUMPDEST CALLVALUE DUP1 ISZERO PUSH2 0xAA JUMPI PUSH0 DUP1 REVERT JUMPDEST POP PUSH2 0xC5 PUSH1 0x4 DUP1 CALLDATASIZE SUB DUP2 ADD SWAP1 PUSH2 0xC0 SWAP2 SWAP1 PUSH2 0x624 JUMP JUMPDEST PUSH2 0x282 JUMP JUMPDEST STOP JUMPDEST CALLVALUE DUP1 ISZERO PUSH2 0xD2 JUMPI PUSH0 DUP1 REVERT JUMPDEST POP PUSH2 0xDB PUSH2 0x322 JUMP JUMPDEST PUSH1 0x40 MLOAD PUSH2 0xE8 SWAP2 SWAP1 PUSH2 0x683 JUMP JUMPDEST PUSH1 0x40 MLOAD DUP1 SWAP2 SUB SWAP1 RETURN JUMPDEST CALLVALUE DUP1 ISZERO PUSH2 0xFC JUMPI PUSH0 DUP1 REVERT JUMPDEST POP PUSH2 0x105 PUSH2 0x329 JUMP JUMPDEST PUSH1 0x40 MLOAD PUSH2 0x112 SWAP2 SWAP1 PUSH2 0x6B6 JUMP JUMPDEST PUSH1 0x40 MLOAD DUP1 SWAP2 SUB SWAP1 RETURN JUMPDEST PUSH2 0x123 PUSH2 0x33B JUMP JUMPDEST STOP JUMPDEST CALLVALUE DUP1 ISZERO PUSH2 0x130 JUMPI PUSH0 DUP1 REVERT JUMPDEST POP PUSH2 0x139 PUSH2 0x38B JUMP JUMPDEST PUSH1 0x40 MLOAD PUSH2 0x146 SWAP2 SWAP1 PUSH2 0x683 JUMP JUMPDEST PUSH1 0x40 MLOAD DUP1 SWAP2 SUB SWAP1 RETURN JUMPDEST CALLVALUE DUP1 ISZERO PUSH2 0x15A JUMPI PUSH0 DUP1 REVERT JUMPDEST POP PUSH2 0x163 PUSH2 0x391 JUMP JUMPDEST PUSH1 0x40 MLOAD PUSH2 0x170 SWAP2 SWAP1 PUSH2 0x70E JUMP JUMPDEST PUSH1 0x40 MLOAD DUP1 SWAP2 SUB SWAP1 RETURN JUMPDEST CALLVALUE DUP1 ISZERO PUSH2 0x184 JUMPI PUSH0 DUP1 REVERT JUMPDEST POP PUSH2 0x18D PUSH2 0x3B4 JUMP JUMPDEST PUSH1 0x40 MLOAD PUSH2 0x19A SWAP2 SWAP1 PUSH2 0x7A1 JUMP JUMPDEST PUSH1 0x40 MLOAD DUP1 SWAP2 SUB SWAP1 RETURN JUMPDEST CALLVALUE DUP1 ISZERO PUSH2 0x1AE JUMPI PUSH0 DUP1 REVERT JUMPDEST POP PUSH2 0x1C9 PUSH1 0x4 DUP1 CALLDATASIZE SUB DUP2 ADD SWAP1 PUSH2 0x1C4 SWAP2 SWAP1 PUSH2 0x7EB JUMP JUMPDEST PUSH2 0x440 JUMP JUMPDEST STOP JUMPDEST PUSH0 DUP1 SLOAD SWAP1 PUSH2 0x100 EXP SWAP1 DIV PUSH20 0xFFFFFFFFFFFFFFFFFFFFFFFFFFFFFFFFFFFFFFFF AND PUSH20 0xFFFFFFFFFFFFFFFFFFFFFFFFFFFFFFFFFFFFFFFF AND CALLER PUSH20 0xFFFFFFFFFFFFFFFFFFFFFFFFFFFFFFFFFFFFFFFF AND EQ PUSH2 0x258 JUMPI PUSH1 0x40 MLOAD PUSH32 0x8C379A000000000000000000000000000000000000000000000000000000000 DUP2 MSTORE PUSH1 0x4 ADD PUSH2 0x24F SWAP1 PUSH2 0x860 JUMP JUMPDEST PUSH1 0x40 MLOAD DUP1 SWAP2 SUB SWAP1 REVERT JUMPDEST PUSH1 0x3 PUSH0 SWAP1 SLOAD SWAP1 PUSH2 0x100 EXP SWAP1 DIV PUSH1 0xFF AND ISZERO PUSH1 0x3 PUSH0 PUSH2 0x100 EXP DUP2 SLOAD DUP2 PUSH1 0xFF MUL NOT AND SWAP1 DUP4 ISZERO ISZERO MUL OR SWAP1 SSTORE POP JUMP JUMPDEST PUSH0 DUP1 SLOAD SWAP1 PUSH2 0x100 EXP SWAP1 DIV PUSH20 0xFFFFFFFFFFFFFFFFFFFFFFFFFFFFFFFFFFFFFFFF AND PUSH20 0xFFFFFFFFFFFFFFFFFFFFFFFFFFFFFFFFFFFFFFFF AND CALLER PUSH20 0xFFFFFFFFFFFFFFFFFFFFFFFFFFFFFFFFFFFFFFFF AND EQ PUSH2 0x30F JUMPI PUSH1 0x40 MLOAD PUSH32 0x8C379A000000000000000000000000000000000000000000000000000000000 DUP2 MSTORE PUSH1 0x4 ADD PUSH2 0x306 SWAP1 PUSH2 0x860 JUMP JUMPDEST PUSH1 0x40 MLOAD DUP1 SWAP2 SUB SWAP1 REVERT JUMPDEST DUP1 PUSH1 0x2 SWAP1 DUP2 PUSH2 0x31E SWAP2 SWAP1 PUSH2 0xA78 JUMP JUMPDEST POP POP JUMP JUMPDEST PUSH0 SELFBALANCE SWAP1 POP SWAP1 JUMP JUMPDEST PUSH1 0x3 PUSH0 SWAP1 SLOAD SWAP1 PUSH2 0x100 EXP SWAP1 DIV PUSH1 0xFF AND DUP2 JUMP JUMPDEST PUSH1 0x3 PUSH0 SWAP1 SLOAD SWAP1 PUSH2 0x100 EXP SWAP1 DIV PUSH1 0xFF AND PUSH2 0x389 JUMPI PUSH1 0x40 MLOAD PUSH32 0x8C379A000000000000000000000000000000000000000000000000000000000 DUP2 MSTORE PUSH1 0x4 ADD PUSH2 0x380 SWAP1 PUSH2 0xB91 JUMP JUMPDEST PUSH1 0x40 MLOAD DUP1 SWAP2 SUB SWAP1 REVERT JUMPDEST JUMP JUMPDEST PUSH1 0x1 SLOAD DUP2 JUMP JUMPDEST PUSH0 DUP1 SLOAD SWAP1 PUSH2 0x100 EXP SWAP1 DIV PUSH20 0xFFFFFFFFFFFFFFFFFFFFFFFFFFFFFFFFFFFFFFFF AND DUP2 JUMP JUMPDEST PUSH1 0x2 DUP1 SLOAD PUSH2 0x3C1 SWAP1 PUSH2 0x8AB JUMP JUMPDEST DUP1 PUSH1 0x1F ADD PUSH1 0x20 DUP1 SWAP2 DIV MUL PUSH1 0x20 ADD PUSH1 0x40 MLOAD SWAP1 DUP2 ADD PUSH1 0x40 MSTORE DUP1 SWAP3 SWAP2 SWAP1 DUP2 DUP2 MSTORE PUSH1 0x20 ADD DUP3 DUP1 SLOAD PUSH2 0x3ED SWAP1 PUSH2 0x8AB JUMP JUMPDEST DUP1 ISZERO PUSH2 0x438 JUMPI DUP1 PUSH1 0x1F LT PUSH2 0x40F JUMPI PUSH2 0x100 DUP1 DUP4 SLOAD DIV MUL DUP4 MSTORE SWAP2 PUSH1 0x20 ADD SWAP2 PUSH2 0x438 JUMP JUMPDEST DUP3 ADD SWAP2 SWAP1 PUSH0 MSTORE PUSH1 0x20 PUSH0 KECCAK256 SWAP1 JUMPDEST DUP2 SLOAD DUP2 MSTORE SWAP1 PUSH1 0x1 ADD SWAP1 PUSH1 0x20 ADD DUP1 DUP4 GT PUSH2 0x41B JUMPI DUP3 SWAP1 SUB PUSH1 0x1F AND DUP3 ADD SWAP2 JUMPDEST POP POP POP POP POP DUP2 JUMP JUMPDEST PUSH0 DUP1 SLOAD SWAP1 PUSH2 0x100 EXP SWAP1 DIV PUSH20 0xFFFFFFFFFFFFFFFFFFFFFFFFFFFFFFFFFFFFFFFF AND PUSH20 0xFFFFFFFFFFFFFFFFFFFFFFFFFFFFFFFFFFFFFFFF AND CALLER PUSH20 0xFFFFFFFFFFFFFFFFFFFFFFFFFFFFFFFFFFFFFFFF AND EQ PUSH2 0x4CD JUMPI PUSH1 0x40 MLOAD PUSH32 0x8C379A000000000000000000000000000000000000000000000000000000000 DUP2 MSTORE PUSH1 0x4 ADD PUSH2 0x4C4 SWAP1 PUSH2 0x860 JUMP JUMPDEST PUSH1 0x40 MLOAD DUP1 SWAP2 SUB SWAP1 REVERT JUMPDEST DUP1 PUSH1 0x1 DUP2 SWAP1 SSTORE POP POP JUMP JUMPDEST PUSH0 PUSH1 0x40 MLOAD SWAP1 POP SWAP1 JUMP JUMPDEST PUSH0 DUP1 REVERT JUMPDEST PUSH0 DUP1 REVERT JUMPDEST PUSH0 DUP1 REVERT JUMPDEST PUSH0 DUP1 REVERT JUMPDEST PUSH0 PUSH1 0x1F NOT PUSH1 0x1F DUP4 ADD AND SWAP1 POP SWAP2 SWAP1 POP JUMP JUMPDEST PUSH32 0x4E487B7100000000000000000000000000000000000000000000000000000000 PUSH0 MSTORE PUSH1 0x41 PUSH1 0x4 MSTORE PUSH1 0x24 PUSH0 REVERT JUMPDEST PUSH2 0x536 DUP3 PUSH2 0x4F0 JUMP JUMPDEST DUP2 ADD DUP2 DUP2 LT PUSH8 0xFFFFFFFFFFFFFFFF DUP3 GT OR ISZERO PUSH2 0x555 JUMPI PUSH2 0x554 PUSH2 0x500 JUMP JUMPDEST JUMPDEST DUP1 PUSH1 0x40 MSTORE POP POP POP JUMP JUMPDEST PUSH0 PUSH2 0x567 PUSH2 0x4D7 JUMP JUMPDEST SWAP1 POP PUSH2 0x573 DUP3 DUP3 PUSH2 0x52D JUMP JUMPDEST SWAP2 SWAP1 POP JUMP JUMPDEST PUSH0 PUSH8 0xFFFFFFFFFFFFFFFF DUP3 GT ISZERO PUSH2 0x592 JUMPI PUSH2 0x591 PUSH2 0x500 JUMP JUMPDEST JUMPDEST PUSH2 0x59B DUP3 PUSH2 0x4F0 JUMP JUMPDEST SWAP1 POP PUSH1 0x20 DUP2 ADD SWAP1 POP SWAP2 SWAP1 POP JUMP JUMPDEST DUP3 DUP2 DUP4 CALLDATACOPY PUSH0 DUP4 DUP4 ADD MSTORE POP POP POP JUMP JUMPDEST PUSH0 PUSH2 0x5C8 PUSH2 0x5C3 DUP5 PUSH2 0x578 JUMP JUMPDEST PUSH2 0x55E JUMP JUMPDEST SWAP1 POP DUP3 DUP2 MSTORE PUSH1 0x20 DUP2 ADD DUP5 DUP5 DUP5 ADD GT ISZERO PUSH2 0x5E4 JUMPI PUSH2 0x5E3 PUSH2 0x4EC JUMP JUMPDEST JUMPDEST PUSH2 0x5EF DUP5 DUP3 DUP6 PUSH2 0x5A8 JUMP JUMPDEST POP SWAP4 SWAP3 POP POP POP JUMP JUMPDEST PUSH0 DUP3 PUSH1 0x1F DUP4 ADD SLT PUSH2 0x60B JUMPI PUSH2 0x60A PUSH2 0x4E8 JUMP JUMPDEST JUMPDEST DUP2 CALLDATALOAD PUSH2 0x61B DUP5 DUP3 PUSH1 0x20 DUP7 ADD PUSH2 0x5B6 JUMP JUMPDEST SWAP2 POP POP SWAP3 SWAP2 POP POP JUMP JUMPDEST PUSH0 PUSH1 0x20 DUP3 DUP5 SUB SLT ISZERO PUSH2 0x639 JUMPI PUSH2 0x638 PUSH2 0x4E0 JUMP JUMPDEST JUMPDEST PUSH0 DUP3 ADD CALLDATALOAD PUSH8 0xFFFFFFFFFFFFFFFF DUP2 GT ISZERO PUSH2 0x656 JUMPI PUSH2 0x655 PUSH2 0x4E4 JUMP JUMPDEST JUMPDEST PUSH2 0x662 DUP5 DUP3 DUP6 ADD PUSH2 0x5F7 JUMP JUMPDEST SWAP2 POP POP SWAP3 SWAP2 POP POP JUMP JUMPDEST PUSH0 DUP2 SWAP1 POP SWAP2 SWAP1 POP JUMP JUMPDEST PUSH2 0x67D DUP2 PUSH2 0x66B JUMP JUMPDEST DUP3 MSTORE POP POP JUMP JUMPDEST PUSH0 PUSH1 0x20 DUP3 ADD SWAP1 POP PUSH2 0x696 PUSH0 DUP4 ADD DUP5 PUSH2 0x674 JUMP JUMPDEST SWAP3 SWAP2 POP POP JUMP JUMPDEST PUSH0 DUP2 ISZERO ISZERO SWAP1 POP SWAP2 SWAP1 POP JUMP JUMPDEST PUSH2 0x6B0 DUP2 PUSH2 0x69C JUMP JUMPDEST DUP3 MSTORE POP POP JUMP JUMPDEST PUSH0 PUSH1 0x20 DUP3 ADD SWAP1 POP PUSH2 0x6C9 PUSH0 DUP4 ADD DUP5 PUSH2 0x6A7 JUMP JUMPDEST SWAP3 SWAP2 POP POP JUMP JUMPDEST PUSH0 PUSH20 0xFFFFFFFFFFFFFFFFFFFFFFFFFFFFFFFFFFFFFFFF DUP3 AND SWAP1 POP SWAP2 SWAP1 POP JUMP JUMPDEST PUSH0 PUSH2 0x6F8 DUP3 PUSH2 0x6CF JUMP JUMPDEST SWAP1 POP SWAP2 SWAP1 POP JUMP JUMPDEST PUSH2 0x708 DUP2 PUSH2 0x6EE JUMP JUMPDEST DUP3 MSTORE POP POP JUMP JUMPDEST PUSH0 PUSH1 0x20 DUP3 ADD SWAP1 POP PUSH2 0x721 PUSH0 DUP4 ADD DUP5 PUSH2 0x6FF JUMP JUMPDEST SWAP3 SWAP2 POP POP JUMP JUMPDEST PUSH0 DUP2 MLOAD SWAP1 POP SWAP2 SWAP1 POP JUMP JUMPDEST PUSH0 DUP3 DUP3 MSTORE PUSH1 0x20 DUP3 ADD SWAP1 POP SWAP3 SWAP2 POP POP JUMP JUMPDEST PUSH0 JUMPDEST DUP4 DUP2 LT ISZERO PUSH2 0x75E JUMPI DUP1 DUP3 ADD MLOAD DUP2 DUP5 ADD MSTORE PUSH1 0x20 DUP2 ADD SWAP1 POP PUSH2 0x743 JUMP JUMPDEST PUSH0 DUP5 DUP5 ADD MSTORE POP POP POP POP JUMP JUMPDEST PUSH0 PUSH2 0x773 DUP3 PUSH2 0x727 JUMP JUMPDEST PUSH2 0x77D DUP2 DUP6 PUSH2 0x731 JUMP JUMPDEST SWAP4 POP PUSH2 0x78D DUP2 DUP6 PUSH1 0x20 DUP7 ADD PUSH2 0x741 JUMP JUMPDEST PUSH2 0x796 DUP2 PUSH2 0x4F0 JUMP JUMPDEST DUP5 ADD SWAP2 POP POP SWAP3 SWAP2 POP POP JUMP JUMPDEST PUSH0 PUSH1 0x20 DUP3 ADD SWAP1 POP DUP2 DUP2 SUB PUSH0 DUP4 ADD MSTORE PUSH2 0x7B9 DUP2 DUP5 PUSH2 0x769 JUMP JUMPDEST SWAP1 POP SWAP3 SWAP2 POP POP JUMP JUMPDEST PUSH2 0x7CA DUP2 PUSH2 0x66B JUMP JUMPDEST DUP2 EQ PUSH2 0x7D4 JUMPI PUSH0 DUP1 REVERT JUMPDEST POP JUMP JUMPDEST PUSH0 DUP2 CALLDATALOAD SWAP1 POP PUSH2 0x7E5 DUP2 PUSH2 0x7C1 JUMP JUMPDEST SWAP3 SWAP2 POP POP JUMP JUMPDEST PUSH0 PUSH1 0x20 DUP3 DUP5 SUB SLT ISZERO PUSH2 0x800 JUMPI PUSH2 0x7FF PUSH2 0x4E0 JUMP JUMPDEST JUMPDEST PUSH0 PUSH2 0x80D DUP5 DUP3 DUP6 ADD PUSH2 0x7D7 JUMP JUMPDEST SWAP2 POP POP SWAP3 SWAP2 POP POP JUMP JUMPDEST PUSH32 0x4E6F206572657320656C206475656E6F00000000000000000000000000000000 PUSH0 DUP3 ADD MSTORE POP JUMP JUMPDEST PUSH0 PUSH2 0x84A PUSH1 0x10 DUP4 PUSH2 0x731 JUMP JUMPDEST SWAP2 POP PUSH2 0x855 DUP3 PUSH2 0x816 JUMP JUMPDEST PUSH1 0x20 DUP3 ADD SWAP1 POP SWAP2 SWAP1 POP JUMP JUMPDEST PUSH0 PUSH1 0x20 DUP3 ADD SWAP1 POP DUP2 DUP2 SUB PUSH0 DUP4 ADD MSTORE PUSH2 0x877 DUP2 PUSH2 0x83E JUMP JUMPDEST SWAP1 POP SWAP2 SWAP1 POP JUMP JUMPDEST PUSH32 0x4E487B7100000000000000000000000000000000000000000000000000000000 PUSH0 MSTORE PUSH1 0x22 PUSH1 0x4 MSTORE PUSH1 0x24 PUSH0 REVERT JUMPDEST PUSH0 PUSH1 0x2 DUP3 DIV SWAP1 POP PUSH1 0x1 DUP3 AND DUP1 PUSH2 0x8C2 JUMPI PUSH1 0x7F DUP3 AND SWAP2 POP JUMPDEST PUSH1 0x20 DUP3 LT DUP2 SUB PUSH2 0x8D5 JUMPI PUSH2 0x8D4 PUSH2 0x87E JUMP JUMPDEST JUMPDEST POP SWAP2 SWAP1 POP JUMP JUMPDEST PUSH0 DUP2 SWAP1 POP DUP2 PUSH0 MSTORE PUSH1 0x20 PUSH0 KECCAK256 SWAP1 POP SWAP2 SWAP1 POP JUMP JUMPDEST PUSH0 PUSH1 0x20 PUSH1 0x1F DUP4 ADD DIV SWAP1 POP SWAP2 SWAP1 POP JUMP JUMPDEST PUSH0 DUP3 DUP3 SHL SWAP1 POP SWAP3 SWAP2 POP POP JUMP JUMPDEST PUSH0 PUSH1 0x8 DUP4 MUL PUSH2 0x937 PUSH32 0xFFFFFFFFFFFFFFFFFFFFFFFFFFFFFFFFFFFFFFFFFFFFFFFFFFFFFFFFFFFFFFFF DUP3 PUSH2 0x8FC JUMP JUMPDEST PUSH2 0x941 DUP7 DUP4 PUSH2 0x8FC JUMP JUMPDEST SWAP6 POP DUP1 NOT DUP5 AND SWAP4 POP DUP1 DUP7 AND DUP5 OR SWAP3 POP POP POP SWAP4 SWAP3 POP POP POP JUMP JUMPDEST PUSH0 DUP2 SWAP1 POP SWAP2 SWAP1 POP JUMP JUMPDEST PUSH0 PUSH2 0x97C PUSH2 0x977 PUSH2 0x972 DUP5 PUSH2 0x66B JUMP JUMPDEST PUSH2 0x959 JUMP JUMPDEST PUSH2 0x66B JUMP JUMPDEST SWAP1 POP SWAP2 SWAP1 POP JUMP JUMPDEST PUSH0 DUP2 SWAP1 POP SWAP2 SWAP1 POP JUMP JUMPDEST PUSH2 0x995 DUP4 PUSH2 0x962 JUMP JUMPDEST PUSH2 0x9A9 PUSH2 0x9A1 DUP3 PUSH2 0x983 JUMP JUMPDEST DUP5 DUP5 SLOAD PUSH2 0x908 JUMP JUMPDEST DUP3 SSTORE POP POP POP POP JUMP JUMPDEST PUSH0 SWAP1 JUMP JUMPDEST PUSH2 0x9BD PUSH2 0x9B1 JUMP JUMPDEST PUSH2 0x9C8 DUP2 DUP5 DUP5 PUSH2 0x98C JUMP JUMPDEST POP POP POP JUMP JUMPDEST JUMPDEST DUP2 DUP2 LT ISZERO PUSH2 0x9EB JUMPI PUSH2 0x9E0 PUSH0 DUP3 PUSH2 0x9B5 JUMP JUMPDEST PUSH1 0x1 DUP2 ADD SWAP1 POP PUSH2 0x9CE JUMP JUMPDEST POP POP JUMP JUMPDEST PUSH1 0x1F DUP3 GT ISZERO PUSH2 0xA30 JUMPI PUSH2 0xA01 DUP2 PUSH2 0x8DB JUMP JUMPDEST PUSH2 0xA0A DUP5 PUSH2 0x8ED JUMP JUMPDEST DUP2 ADD PUSH1 0x20 DUP6 LT ISZERO PUSH2 0xA19 JUMPI DUP2 SWAP1 POP JUMPDEST PUSH2 0xA2D PUSH2 0xA25 DUP6 PUSH2 0x8ED JUMP JUMPDEST DUP4 ADD DUP3 PUSH2 0x9CD JUMP JUMPDEST POP POP JUMPDEST POP POP POP JUMP JUMPDEST PUSH0 DUP3 DUP3 SHR SWAP1 POP SWAP3 SWAP2 POP POP JUMP JUMPDEST PUSH0 PUSH2 0xA50 PUSH0 NOT DUP5 PUSH1 0x8 MUL PUSH2 0xA35 JUMP JUMPDEST NOT DUP1 DUP4 AND SWAP2 POP POP SWAP3 SWAP2 POP POP JUMP JUMPDEST PUSH0 PUSH2 0xA68 DUP4 DUP4 PUSH2 0xA41 JUMP JUMPDEST SWAP2 POP DUP3 PUSH1 0x2 MUL DUP3 OR SWAP1 POP SWAP3 SWAP2 POP POP JUMP JUMPDEST PUSH2 0xA81 DUP3 PUSH2 0x727 JUMP JUMPDEST PUSH8 0xFFFFFFFFFFFFFFFF DUP2 GT ISZERO PUSH2 0xA9A JUMPI PUSH2 0xA99 PUSH2 0x500 JUMP JUMPDEST JUMPDEST PUSH2 0xAA4 DUP3 SLOAD PUSH2 0x8AB JUMP JUMPDEST PUSH2 0xAAF DUP3 DUP3 DUP6 PUSH2 0x9EF JUMP JUMPDEST PUSH0 PUSH1 0x20 SWAP1 POP PUSH1 0x1F DUP4 GT PUSH1 0x1 DUP2 EQ PUSH2 0xAE0 JUMPI PUSH0 DUP5 ISZERO PUSH2 0xACE JUMPI DUP3 DUP8 ADD MLOAD SWAP1 POP JUMPDEST PUSH2 0xAD8 DUP6 DUP3 PUSH2 0xA5D JUMP JUMPDEST DUP7 SSTORE POP PUSH2 0xB3F JUMP JUMPDEST PUSH1 0x1F NOT DUP5 AND PUSH2 0xAEE DUP7 PUSH2 0x8DB JUMP JUMPDEST PUSH0 JUMPDEST DUP3 DUP2 LT ISZERO PUSH2 0xB15 JUMPI DUP5 DUP10 ADD MLOAD DUP3 SSTORE PUSH1 0x1 DUP3 ADD SWAP2 POP PUSH1 0x20 DUP6 ADD SWAP5 POP PUSH1 0x20 DUP2 ADD SWAP1 POP PUSH2 0xAF0 JUMP JUMPDEST DUP7 DUP4 LT ISZERO PUSH2 0xB32 JUMPI DUP5 DUP10 ADD MLOAD PUSH2 0xB2E PUSH1 0x1F DUP10 AND DUP3 PUSH2 0xA41 JUMP JUMPDEST DUP4 SSTORE POP JUMPDEST PUSH1 0x1 PUSH1 0x2 DUP9 MUL ADD DUP9 SSTORE POP POP POP JUMPDEST POP POP POP POP POP POP JUMP JUMPDEST PUSH32 0x4C6120616C63616E636961206573746120636572726164610000000000000000 PUSH0 DUP3 ADD MSTORE POP JUMP JUMPDEST PUSH0 PUSH2 0xB7B PUSH1 0x18 DUP4 PUSH2 0x731 JUMP JUMPDEST SWAP2 POP PUSH2 0xB86 DUP3 PUSH2 0xB47 JUMP JUMPDEST PUSH1 0x20 DUP3 ADD SWAP1 POP SWAP2 SWAP1 POP JUMP JUMPDEST PUSH0 PUSH1 0x20 DUP3 ADD SWAP1 POP DUP2 DUP2 SUB PUSH0 DUP4 ADD MSTORE PUSH2 0xBA8 DUP2 PUSH2 0xB6F JUMP JUMPDEST SWAP1 POP SWAP2 SWAP1 POP JUMP INVALID LOG2 PUSH5 0x6970667358 0x22 SLT KECCAK256 0xC9 PUSH25 0x92A9269F1866F3DDD644F300D3EF22D4871FA64C41D9C7406E 0xDF 0x2E SIGNEXTEND EXP 0xE1 PUSH5 0x736F6C6343 STOP ADDMOD EQ STOP CALLER "
				},
				"gasEstimates": {
					"creation": {
						"codeDepositCost": "609000",
						"executionCost": "infinite",
						"totalCost": "infinite"
					},
					"external": {
						"alcanciaAbierta()": "2533",
						"cambiarEstadoAlcancia()": "28714",
						"cambiarNombre(string)": "infinite",
						"cambiarObjetivo(uint256)": "24769",
						"cantidadObjetivo()": "2447",
						"depositarFondos()": "2555",
						"nombreAlcancia()": "infinite",
						"obtenerBalance()": "379",
						"owner()": "2549"
					}
				},
				"methodIdentifiers": {
					"alcanciaAbierta()": "305954b6",
					"cambiarEstadoAlcancia()": "06a3e4e6",
					"cambiarNombre(string)": "1dd45606",
					"cambiarObjetivo(uint256)": "bc167263",
					"cantidadObjetivo()": "78340e57",
					"depositarFondos()": "3ec47542",
					"nombreAlcancia()": "aba46a5f",
					"obtenerBalance()": "22d9a1ee",
					"owner()": "8da5cb5b"
				}
			},
			"storageLayout": {
				"storage": [
					{
						"astId": 3,
						"contract": "Alcancia.sol:AlcanciaDigital",
						"label": "owner",
						"offset": 0,
						"slot": "0",
						"type": "t_address"
					},
					{
						"astId": 5,
						"contract": "Alcancia.sol:AlcanciaDigital",
						"label": "cantidadObjetivo",
						"offset": 0,
						"slot": "1",
						"type": "t_uint256"
					},
					{
						"astId": 7,
						"contract": "Alcancia.sol:AlcanciaDigital",
						"label": "nombreAlcancia",
						"offset": 0,
						"slot": "2",
						"type": "t_string_storage"
					},
					{
						"astId": 9,
						"contract": "Alcancia.sol:AlcanciaDigital",
						"label": "alcanciaAbierta",
						"offset": 0,
						"slot": "3",
						"type": "t_bool"
					}
				],
				"types": {
					"t_address": {
						"encoding": "inplace",
						"label": "address",
						"numberOfBytes": "20"
					},
					"t_bool": {
						"encoding": "inplace",
						"label": "bool",
						"numberOfBytes": "1"
					},
					"t_string_storage": {
						"encoding": "bytes",
						"label": "string",
						"numberOfBytes": "32"
					},
					"t_uint256": {
						"encoding": "inplace",
						"label": "uint256",
						"numberOfBytes": "32"
					}
				}
			},
			"userdoc": {
				"kind": "user",
				"methods": {},
				"version": 1
			}
		}
	}
}